{"abi":[{"type":"constructor","inputs":[],"stateMutability":"payable"},{"type":"function","name":"UPGRADE_INTERFACE_VERSION","inputs":[],"outputs":[{"name":"","type":"string","internalType":"string"}],"stateMutability":"view"},{"type":"function","name":"clearStaking","inputs":[{"name":"recipient","type":"address","internalType":"address"}],"outputs":[],"stateMutability":"nonpayable"},{"type":"function","name":"initialize","inputs":[{"name":"owner_","type":"address","internalType":"address"},{"name":"token_","type":"address","internalType":"address"}],"outputs":[],"stateMutability":"nonpayable"},{"type":"function","name":"owner","inputs":[],"outputs":[{"name":"","type":"address","internalType":"address"}],"stateMutability":"view"},{"type":"function","name":"pause","inputs":[],"outputs":[],"stateMutability":"nonpayable"},{"type":"function","name":"paused","inputs":[],"outputs":[{"name":"","type":"bool","internalType":"bool"}],"stateMutability":"view"},{"type":"function","name":"proxiableUUID","inputs":[],"outputs":[{"name":"","type":"bytes32","internalType":"bytes32"}],"stateMutability":"view"},{"type":"function","name":"renounceOwnership","inputs":[],"outputs":[],"stateMutability":"nonpayable"},{"type":"function","name":"setToken","inputs":[{"name":"newToken","type":"address","internalType":"address"}],"outputs":[],"stateMutability":"nonpayable"},{"type":"function","name":"stake","inputs":[{"name":"amount","type":"uint256","internalType":"uint256"},{"name":"cliff","type":"uint256","internalType":"uint256"},{"name":"duration","type":"uint256","internalType":"uint256"},{"name":"recipient","type":"address","internalType":"address"}],"outputs":[],"stateMutability":"nonpayable"},{"type":"function","name":"stake","inputs":[{"name":"cliff","type":"uint256","internalType":"uint256"},{"name":"duration","type":"uint256","internalType":"uint256"},{"name":"staked_","type":"tuple[]","internalType":"struct IDPAIStaking.StakeMultiple[]","components":[{"name":"amount","type":"uint256","internalType":"uint256"},{"name":"recipient","type":"address","internalType":"address"}]}],"outputs":[],"stateMutability":"nonpayable"},{"type":"function","name":"staked","inputs":[{"name":"","type":"address","internalType":"address"},{"name":"","type":"uint256","internalType":"uint256"}],"outputs":[{"name":"amountLocked","type":"uint256","internalType":"uint256"},{"name":"cliff","type":"uint256","internalType":"uint256"},{"name":"duration","type":"uint256","internalType":"uint256"}],"stateMutability":"view"},{"type":"function","name":"stakedAmount","inputs":[{"name":"recipient","type":"address","internalType":"address"}],"outputs":[{"name":"","type":"uint256","internalType":"uint256"}],"stateMutability":"view"},{"type":"function","name":"token","inputs":[],"outputs":[{"name":"","type":"address","internalType":"address"}],"stateMutability":"view"},{"type":"function","name":"transferOwnership","inputs":[{"name":"newOwner","type":"address","internalType":"address"}],"outputs":[],"stateMutability":"nonpayable"},{"type":"function","name":"unpause","inputs":[],"outputs":[],"stateMutability":"nonpayable"},{"type":"function","name":"upgradeToAndCall","inputs":[{"name":"newImplementation","type":"address","internalType":"address"},{"name":"data","type":"bytes","internalType":"bytes"}],"outputs":[],"stateMutability":"payable"},{"type":"function","name":"vestedAmount","inputs":[{"name":"recipient","type":"address","internalType":"address"}],"outputs":[{"name":"","type":"uint256","internalType":"uint256"}],"stateMutability":"view"},{"type":"event","name":"Initialized","inputs":[{"name":"version","type":"uint64","indexed":false,"internalType":"uint64"}],"anonymous":false},{"type":"event","name":"OwnershipTransferred","inputs":[{"name":"previousOwner","type":"address","indexed":true,"internalType":"address"},{"name":"newOwner","type":"address","indexed":true,"internalType":"address"}],"anonymous":false},{"type":"event","name":"Paused","inputs":[{"name":"account","type":"address","indexed":false,"internalType":"address"}],"anonymous":false},{"type":"event","name":"Unpaused","inputs":[{"name":"account","type":"address","indexed":false,"internalType":"address"}],"anonymous":false},{"type":"event","name":"Upgraded","inputs":[{"name":"implementation","type":"address","indexed":true,"internalType":"address"}],"anonymous":false},{"type":"error","name":"AddressEmptyCode","inputs":[{"name":"target","type":"address","internalType":"address"}]},{"type":"error","name":"ERC1967InvalidImplementation","inputs":[{"name":"implementation","type":"address","internalType":"address"}]},{"type":"error","name":"ERC1967NonPayable","inputs":[]},{"type":"error","name":"EnforcedPause","inputs":[]},{"type":"error","name":"ExpectedPause","inputs":[]},{"type":"error","name":"FailedInnerCall","inputs":[]},{"type":"error","name":"InvalidInitialization","inputs":[]},{"type":"error","name":"NotInitializing","inputs":[]},{"type":"error","name":"OwnableInvalidOwner","inputs":[{"name":"owner","type":"address","internalType":"address"}]},{"type":"error","name":"OwnableUnauthorizedAccount","inputs":[{"name":"account","type":"address","internalType":"address"}]},{"type":"error","name":"UUPSUnauthorizedCallContext","inputs":[]},{"type":"error","name":"UUPSUnsupportedProxiableUUID","inputs":[{"name":"slot","type":"bytes32","internalType":"bytes32"}]},{"type":"error","name":"WrongCaller","inputs":[{"name":"caller","type":"address","internalType":"address"}]},{"type":"error","name":"ZeroAddress","inputs":[]},{"type":"error","name":"ZeroAmount","inputs":[]},{"type":"error","name":"ZeroCliff","inputs":[]},{"type":"error","name":"ZeroDuration","inputs":[]}],"bytecode":{"object":"0x60a060405230608052610010610015565b6100c7565b7ff0c57e16840df040f15088dc2f81fe391c3923bec73e23a9662efc9c229c6a00805468010000000000000000900460ff16156100655760405163f92ee8a960e01b815260040160405180910390fd5b80546001600160401b03908116146100c45780546001600160401b0319166001600160401b0390811782556040519081527fc7f505b2f371ae2175ee4913f4499e1f2633a7b5936321eed1cdaeb6115181d29060200160405180910390a15b50565b60805161198d6100f060003960008181610fb701528181610fe00152611126015261198d6000f3fe6080604052600436106101095760003560e01c8063715018a611610095578063ad3cb1cc11610064578063ad3cb1cc146102c2578063f2fde38b14610300578063f993185514610320578063fc0c546a14610340578063fe9601ae1461036557600080fd5b8063715018a6146102305780638456cb59146102455780638da5cb5b1461025a5780638f1698161461028757600080fd5b80633f4ba83a116100dc5780633f4ba83a146101a3578063485cc955146101b85780634f1ef286146101d857806352d1902d146101eb5780635c975abb1461020057600080fd5b80630a41d0171461010e578063144fa6d71461013057806330815e5614610150578063384711cc14610170575b600080fd5b34801561011a57600080fd5b5061012e610129366004611529565b610385565b005b34801561013c57600080fd5b5061012e61014b366004611529565b6103a9565b34801561015c57600080fd5b5061012e61016b366004611544565b6103d9565b34801561017c57600080fd5b5061019061018b366004611529565b61055e565b6040519081526020015b60405180910390f35b3480156101af57600080fd5b5061012e610866565b3480156101c457600080fd5b5061012e6101d3366004611583565b610878565b61012e6101e6366004611626565b6109c7565b3480156101f757600080fd5b506101906109e6565b34801561020c57600080fd5b506000805160206119388339815191525460ff16604051901515815260200161019a565b34801561023c57600080fd5b5061012e610a03565b34801561025157600080fd5b5061012e610a15565b34801561026657600080fd5b5061026f610a25565b6040516001600160a01b03909116815260200161019a565b34801561029357600080fd5b506102a76102a23660046116cc565b610a53565b6040805193845260208401929092529082015260600161019a565b3480156102ce57600080fd5b506102f3604051806040016040528060058152602001640352e302e360dc1b81525081565b60405161019a919061171a565b34801561030c57600080fd5b5061012e61031b366004611529565b610a95565b34801561032c57600080fd5b5061019061033b366004611529565b610ad5565b34801561034c57600080fd5b5060005461026f9061010090046001600160a01b031681565b34801561037157600080fd5b5061012e61038036600461174d565b610d4a565b6001600160a01b03811660009081526001602052604081206103a6916114cb565b50565b6103b1610ef1565b600080546001600160a01b0390921661010002610100600160a81b0319909216919091179055565b6001600160a01b0381166104005760405163d92e233d60e01b815260040160405180910390fd5b8360000361042157604051631f2a200560e01b815260040160405180910390fd5b816000036104425760405163346ab43760e11b815260040160405180910390fd5b61044a610a25565b6001600160a01b0316336001600160a01b0316146104e3576000546040516323b872dd60e01b8152336004820152306024820152604481018690526101009091046001600160a01b0316906323b872dd906064016020604051808303816000875af11580156104bd573d6000803e3d6000fd5b505050506040513d601f19601f820116820180604052508101906104e19190611835565b505b6001600160a01b03811660009081526001602090815260409182902082516060810190935286835291908101610519428761186d565b81526020908101949094528154600181810184556000938452928590208251600390920201908155938101519184019190915560400151600290920191909155505050565b6001600160a01b038116600090815260016020526040812054818082810361058b57506000949350505050565b60005b8381101561085c576001600160a01b03861660009081526001602052604090208054829081106105c0576105c0611880565b906000526020600020906003020160000154915060016000876001600160a01b03166001600160a01b03168152602001908152602001600020818154811061060a5761060a611880565b9060005260206000209060030201600101544210610854576001600160a01b038616600090815260016020526040902080548290811061064c5761064c611880565b90600052602060002090600302016002015460016000886001600160a01b03166001600160a01b03168152602001908152602001600020828154811061069457610694611880565b9060005260206000209060030201600101546106b0919061186d565b42106106c7576106c0828461186d565b9250610854565b6001600160a01b03861660009081526001602052604090208054429190839081106106f4576106f4611880565b90600052602060002090600302016001015410801561079f57506001600160a01b038616600090815260016020526040902080548290811061073857610738611880565b90600052602060002090600302016002015460016000886001600160a01b03166001600160a01b03168152602001908152602001600020828154811061078057610780611880565b90600052602060002090600302016001015461079c919061186d565b42105b15610854576001600160a01b03861660009081526001602052604090208054829081106107ce576107ce611880565b90600052602060002090600302016002015460016000886001600160a01b03166001600160a01b03168152602001908152602001600020828154811061081657610816611880565b906000526020600020906003020160010154426108339190611896565b61083d90846118a9565b61084791906118c0565b610851908461186d565b92505b60010161058e565b5090949350505050565b61086e610ef1565b610876610f23565b565b7ff0c57e16840df040f15088dc2f81fe391c3923bec73e23a9662efc9c229c6a008054600160401b810460ff16159067ffffffffffffffff166000811580156108be5750825b905060008267ffffffffffffffff1660011480156108db5750303b155b9050811580156108e9575080155b156109075760405163f92ee8a960e01b815260040160405180910390fd5b845467ffffffffffffffff19166001178555831561093157845460ff60401b1916600160401b1785555b60005460ff166109785761094487610f83565b600080546001600160a01b038816610100026001600160a81b0319909116176001179055610970610f94565b610978610f9c565b83156109be57845460ff60401b19168555604051600181527fc7f505b2f371ae2175ee4913f4499e1f2633a7b5936321eed1cdaeb6115181d29060200160405180910390a15b50505050505050565b6109cf610fac565b6109d882611051565b6109e28282611059565b5050565b60006109f061111b565b5060008051602061191883398151915290565b610a0b610ef1565b6108766000611164565b610a1d610ef1565b6108766111d5565b7f9016d09d72d40fdae2fd8ceac6b6234c7706214fd39c1cd1e609a0528c199300546001600160a01b031690565b60016020528160005260406000208181548110610a6f57600080fd5b600091825260209091206003909102018054600182015460029092015490935090915083565b610a9d610ef1565b6001600160a01b038116610acc57604051631e4fbdf760e01b8152600060048201526024015b60405180910390fd5b6103a681611164565b6001600160a01b0381166000908152600160205260408120548180828103610b0257506000949350505050565b60005b8381101561085c576001600160a01b0386166000908152600160205260409020805482908110610b3757610b37611880565b906000526020600020906003020160000154915060016000876001600160a01b03166001600160a01b031681526020019081526020016000208181548110610b8157610b81611880565b906000526020600020906003020160010154421015610bab57610ba4828461186d565b9250610d42565b6001600160a01b0386166000908152600160205260409020805442919083908110610bd857610bd8611880565b906000526020600020906003020160010154108015610c8357506001600160a01b0386166000908152600160205260409020805482908110610c1c57610c1c611880565b90600052602060002090600302016002015460016000886001600160a01b03166001600160a01b031681526020019081526020016000208281548110610c6457610c64611880565b906000526020600020906003020160010154610c80919061186d565b42105b15610d42576001600160a01b0386166000908152600160205260409020805482908110610cb257610cb2611880565b90600052602060002090600302016002015460016000886001600160a01b03166001600160a01b031681526020019081526020016000208281548110610cfa57610cfa611880565b90600052602060002090600302016001015442610d179190611896565b610d2190846118a9565b610d2b91906118c0565b610d359083611896565b610d3f908461186d565b92505b600101610b05565b610d52610ef1565b82600003610d73576040516374a9ded160e01b815260040160405180910390fd5b81600003610d945760405163346ab43760e11b815260040160405180910390fd5b60005b8151811015610eeb5760006001600160a01b0316828281518110610dbd57610dbd611880565b6020026020010151602001516001600160a01b031603610df05760405163d92e233d60e01b815260040160405180910390fd5b818181518110610e0257610e02611880565b602002602001015160000151600003610e2e57604051631f2a200560e01b815260040160405180910390fd5b60016000838381518110610e4457610e44611880565b6020026020010151602001516001600160a01b03166001600160a01b031681526020019081526020016000206040518060600160405280848481518110610e8d57610e8d611880565b60200260200101516000015181526020014287610eaa919061186d565b815260209081018690528254600181810185556000948552938290208351600390920201908155908201518184015560409091015160029091015501610d97565b50505050565b33610efa610a25565b6001600160a01b0316146108765760405163118cdaa760e01b8152336004820152602401610ac3565b610f2b61121e565b600080516020611938833981519152805460ff191681557f5db9ee0a495bf2e6ff9c91a7834c1ba4fdd244a5e8aa4e537bd38aeae4b073aa335b6040516001600160a01b03909116815260200160405180910390a150565b610f8b61124e565b6103a681611297565b61087661124e565b610fa461124e565b61087661129f565b306001600160a01b037f000000000000000000000000000000000000000000000000000000000000000016148061103357507f00000000000000000000000000000000000000000000000000000000000000006001600160a01b0316611027600080516020611918833981519152546001600160a01b031690565b6001600160a01b031614155b156108765760405163703e46dd60e11b815260040160405180910390fd5b6103a6610ef1565b816001600160a01b03166352d1902d6040518163ffffffff1660e01b8152600401602060405180830381865afa9250505080156110b3575060408051601f3d908101601f191682019092526110b0918101906118e2565b60015b6110db57604051634c9c8ce360e01b81526001600160a01b0383166004820152602401610ac3565b600080516020611918833981519152811461110c57604051632a87526960e21b815260048101829052602401610ac3565b61111683836112c0565b505050565b306001600160a01b037f000000000000000000000000000000000000000000000000000000000000000016146108765760405163703e46dd60e11b815260040160405180910390fd5b7f9016d09d72d40fdae2fd8ceac6b6234c7706214fd39c1cd1e609a0528c19930080546001600160a01b031981166001600160a01b03848116918217845560405192169182907f8be0079c531659141344cd1fd0a4f28419497f9722a3daafe3b4186f6b6457e090600090a3505050565b6111dd611316565b600080516020611938833981519152805460ff191660011781557f62e78cea01bee320cd4e420270b5ea74000d11b0c9f74754ebdbfc544b05a25833610f65565b6000805160206119388339815191525460ff1661087657604051638dfc202b60e01b815260040160405180910390fd5b7ff0c57e16840df040f15088dc2f81fe391c3923bec73e23a9662efc9c229c6a0054600160401b900460ff1661087657604051631afcd79f60e31b815260040160405180910390fd5b610a9d61124e565b6112a761124e565b600080516020611938833981519152805460ff19169055565b6112c982611347565b6040516001600160a01b038316907fbc7cd75a20ee27fd9adebab32041f755214dbc6bffa90cc0225b39da2e5c2d3b90600090a280511561130e5761111682826113ac565b6109e2611424565b6000805160206119388339815191525460ff16156108765760405163d93c066560e01b815260040160405180910390fd5b806001600160a01b03163b60000361137d57604051634c9c8ce360e01b81526001600160a01b0382166004820152602401610ac3565b60008051602061191883398151915280546001600160a01b0319166001600160a01b0392909216919091179055565b6060600080846001600160a01b0316846040516113c991906118fb565b600060405180830381855af49150503d8060008114611404576040519150601f19603f3d011682016040523d82523d6000602084013e611409565b606091505b5091509150611419858383611443565b925050505b92915050565b34156108765760405163b398979f60e01b815260040160405180910390fd5b60608261145857611453826114a2565b61149b565b815115801561146f57506001600160a01b0384163b155b1561149857604051639996b31560e01b81526001600160a01b0385166004820152602401610ac3565b50805b9392505050565b8051156114b25780518082602001fd5b604051630a12f52160e11b815260040160405180910390fd5b50805460008255600302906000526020600020908101906103a691905b808211156115095760008082556001820181905560028201556003016114e8565b5090565b80356001600160a01b038116811461152457600080fd5b919050565b60006020828403121561153b57600080fd5b61149b8261150d565b6000806000806080858703121561155a57600080fd5b8435935060208501359250604085013591506115786060860161150d565b905092959194509250565b6000806040838503121561159657600080fd5b61159f8361150d565b91506115ad6020840161150d565b90509250929050565b634e487b7160e01b600052604160045260246000fd5b6040805190810167ffffffffffffffff811182821017156115ef576115ef6115b6565b60405290565b604051601f8201601f1916810167ffffffffffffffff8111828210171561161e5761161e6115b6565b604052919050565b6000806040838503121561163957600080fd5b6116428361150d565b915060208084013567ffffffffffffffff8082111561166057600080fd5b818601915086601f83011261167457600080fd5b813581811115611686576116866115b6565b611698601f8201601f191685016115f5565b915080825287848285010111156116ae57600080fd5b80848401858401376000848284010152508093505050509250929050565b600080604083850312156116df57600080fd5b6116e88361150d565b946020939093013593505050565b60005b838110156117115781810151838201526020016116f9565b50506000910152565b60208152600082518060208401526117398160408501602087016116f6565b601f01601f19169190910160400192915050565b60008060006060848603121561176257600080fd5b83359250602080850135925060408086013567ffffffffffffffff8082111561178a57600080fd5b818801915088601f83011261179e57600080fd5b8135818111156117b0576117b06115b6565b6117be858260051b016115f5565b818152858101925060069190911b83018501908a8211156117de57600080fd5b928501925b818410156118255784848c0312156117fb5760008081fd5b6118036115cc565b8435815261181287860161150d565b81880152835292840192918501916117e3565b8096505050505050509250925092565b60006020828403121561184757600080fd5b8151801515811461149b57600080fd5b634e487b7160e01b600052601160045260246000fd5b8082018082111561141e5761141e611857565b634e487b7160e01b600052603260045260246000fd5b8181038181111561141e5761141e611857565b808202811582820484141761141e5761141e611857565b6000826118dd57634e487b7160e01b600052601260045260246000fd5b500490565b6000602082840312156118f457600080fd5b5051919050565b6000825161190d8184602087016116f6565b919091019291505056fe360894a13ba1a3210667c828492db98dca3e2076cc3735a920a3ca505d382bbccd5ed15c6e187e77e9aee88184c21f4f2182ab5827cb3b7e07fbedcd63f03300a2646970667358221220b9332ff93280aad7c26fa14074a93ceda86445bf4b22713c0ed983e1d4fca2cf64736f6c63430008190033","linkReferences":{}},"methodIdentifiers":{"UPGRADE_INTERFACE_VERSION()":"ad3cb1cc","clearStaking(address)":"0a41d017","initialize(address,address)":"485cc955","owner()":"8da5cb5b","pause()":"8456cb59","paused()":"5c975abb","proxiableUUID()":"52d1902d","renounceOwnership()":"715018a6","setToken(address)":"144fa6d7","stake(uint256,uint256,(uint256,address)[])":"fe9601ae","stake(uint256,uint256,uint256,address)":"30815e56","staked(address,uint256)":"8f169816","stakedAmount(address)":"f9931855","token()":"fc0c546a","transferOwnership(address)":"f2fde38b","unpause()":"3f4ba83a","upgradeToAndCall(address,bytes)":"4f1ef286","vestedAmount(address)":"384711cc"},"id":0}