{"abi":[{"type":"constructor","inputs":[],"stateMutability":"nonpayable"},{"type":"function","name":"UPGRADE_INTERFACE_VERSION","inputs":[],"outputs":[{"name":"","type":"string","internalType":"string"}],"stateMutability":"view"},{"type":"function","name":"beginTime","inputs":[],"outputs":[{"name":"","type":"uint256","internalType":"uint256"}],"stateMutability":"view"},{"type":"function","name":"endTime","inputs":[],"outputs":[{"name":"","type":"uint256","internalType":"uint256"}],"stateMutability":"view"},{"type":"function","name":"get","inputs":[{"name":"i","type":"uint256","internalType":"uint256"}],"outputs":[{"name":"","type":"address","internalType":"address"}],"stateMutability":"view"},{"type":"function","name":"getwinners","inputs":[],"outputs":[{"name":"result","type":"address[]","internalType":"address[]"}],"stateMutability":"view"},{"type":"function","name":"initialize","inputs":[{"name":"owner_","type":"address","internalType":"address"}],"outputs":[],"stateMutability":"nonpayable"},{"type":"function","name":"length","inputs":[],"outputs":[{"name":"","type":"uint256","internalType":"uint256"}],"stateMutability":"view"},{"type":"function","name":"names","inputs":[{"name":"","type":"address","internalType":"address"}],"outputs":[{"name":"","type":"string","internalType":"string"}],"stateMutability":"view"},{"type":"function","name":"owner","inputs":[],"outputs":[{"name":"","type":"address","internalType":"address"}],"stateMutability":"view"},{"type":"function","name":"pause","inputs":[],"outputs":[],"stateMutability":"nonpayable"},{"type":"function","name":"paused","inputs":[],"outputs":[{"name":"","type":"bool","internalType":"bool"}],"stateMutability":"view"},{"type":"function","name":"proxiableUUID","inputs":[],"outputs":[{"name":"","type":"bytes32","internalType":"bytes32"}],"stateMutability":"view"},{"type":"function","name":"renounceOwnership","inputs":[],"outputs":[],"stateMutability":"nonpayable"},{"type":"function","name":"root","inputs":[],"outputs":[{"name":"","type":"bytes32","internalType":"bytes32"}],"stateMutability":"view"},{"type":"function","name":"setBeginTime","inputs":[{"name":"newTime","type":"uint256","internalType":"uint256"}],"outputs":[],"stateMutability":"nonpayable"},{"type":"function","name":"setEndTime","inputs":[{"name":"newTime","type":"uint256","internalType":"uint256"}],"outputs":[],"stateMutability":"nonpayable"},{"type":"function","name":"setRoot","inputs":[{"name":"newRoot","type":"bytes32","internalType":"bytes32"}],"outputs":[],"stateMutability":"nonpayable"},{"type":"function","name":"setWinnersCount","inputs":[{"name":"newWinnersCount","type":"uint256","internalType":"uint256"}],"outputs":[],"stateMutability":"nonpayable"},{"type":"function","name":"transferOwnership","inputs":[{"name":"newOwner","type":"address","internalType":"address"}],"outputs":[],"stateMutability":"nonpayable"},{"type":"function","name":"unpause","inputs":[],"outputs":[],"stateMutability":"nonpayable"},{"type":"function","name":"unvote","inputs":[{"name":"amount","type":"uint256","internalType":"uint256"},{"name":"proof","type":"bytes32[]","internalType":"bytes32[]"}],"outputs":[],"stateMutability":"nonpayable"},{"type":"function","name":"upgradeToAndCall","inputs":[{"name":"newImplementation","type":"address","internalType":"address"},{"name":"data","type":"bytes","internalType":"bytes"}],"outputs":[],"stateMutability":"payable"},{"type":"function","name":"vote","inputs":[{"name":"amount","type":"uint256","internalType":"uint256"},{"name":"proof","type":"bytes32[]","internalType":"bytes32[]"},{"name":"voteFor","type":"address","internalType":"address"}],"outputs":[],"stateMutability":"nonpayable"},{"type":"function","name":"votes","inputs":[{"name":"","type":"address","internalType":"address"}],"outputs":[{"name":"","type":"uint256","internalType":"uint256"}],"stateMutability":"view"},{"type":"function","name":"winnersCount","inputs":[],"outputs":[{"name":"","type":"uint256","internalType":"uint256"}],"stateMutability":"view"},{"type":"event","name":"Initialized","inputs":[{"name":"version","type":"uint64","indexed":false,"internalType":"uint64"}],"anonymous":false},{"type":"event","name":"OwnershipTransferred","inputs":[{"name":"previousOwner","type":"address","indexed":true,"internalType":"address"},{"name":"newOwner","type":"address","indexed":true,"internalType":"address"}],"anonymous":false},{"type":"event","name":"Paused","inputs":[{"name":"account","type":"address","indexed":false,"internalType":"address"}],"anonymous":false},{"type":"event","name":"Unpaused","inputs":[{"name":"account","type":"address","indexed":false,"internalType":"address"}],"anonymous":false},{"type":"event","name":"Upgraded","inputs":[{"name":"implementation","type":"address","indexed":true,"internalType":"address"}],"anonymous":false},{"type":"error","name":"AddressEmptyCode","inputs":[{"name":"target","type":"address","internalType":"address"}]},{"type":"error","name":"AlreadyVoted","inputs":[{"name":"sender","type":"address","internalType":"address"}]},{"type":"error","name":"ERC1967InvalidImplementation","inputs":[{"name":"implementation","type":"address","internalType":"address"}]},{"type":"error","name":"ERC1967NonPayable","inputs":[]},{"type":"error","name":"EnforcedPause","inputs":[]},{"type":"error","name":"EnumerableMapNonexistentKey","inputs":[{"name":"key","type":"bytes32","internalType":"bytes32"}]},{"type":"error","name":"ExpectedPause","inputs":[]},{"type":"error","name":"FailedInnerCall","inputs":[]},{"type":"error","name":"IndexOutOfRange","inputs":[{"name":"i","type":"uint256","internalType":"uint256"}]},{"type":"error","name":"InvalidInitialization","inputs":[]},{"type":"error","name":"NotInitializing","inputs":[]},{"type":"error","name":"NotPermittedTime","inputs":[]},{"type":"error","name":"NotVoted","inputs":[{"name":"sender","type":"address","internalType":"address"}]},{"type":"error","name":"OwnableInvalidOwner","inputs":[{"name":"owner","type":"address","internalType":"address"}]},{"type":"error","name":"OwnableUnauthorizedAccount","inputs":[{"name":"account","type":"address","internalType":"address"}]},{"type":"error","name":"ReentrancyGuardReentrantCall","inputs":[]},{"type":"error","name":"UUPSUnauthorizedCallContext","inputs":[]},{"type":"error","name":"UUPSUnsupportedProxiableUUID","inputs":[{"name":"slot","type":"bytes32","internalType":"bytes32"}]},{"type":"error","name":"WrongMerkleProof","inputs":[{"name":"sender","type":"address","internalType":"address"},{"name":"amount","type":"uint256","internalType":"uint256"}]}],"bytecode":{"object":"0x60a06040523060805234801561001457600080fd5b5061001d610022565b6100d4565b7ff0c57e16840df040f15088dc2f81fe391c3923bec73e23a9662efc9c229c6a00805468010000000000000000900460ff16156100725760405163f92ee8a960e01b815260040160405180910390fd5b80546001600160401b03908116146100d15780546001600160401b0319166001600160401b0390811782556040519081527fc7f505b2f371ae2175ee4913f4499e1f2633a7b5936321eed1cdaeb6115181d29060200160405180910390a15b50565b608051611ecb6100fd600039600081816111e40152818161120d015261134e0152611ecb6000f3fe6080604052600436106101665760003560e01c80638456cb59116100d1578063be6e7a4f1161008a578063d8bff5a511610064578063d8bff5a514610423578063dab5f34014610450578063ebf0c71714610470578063f2fde38b1461048657600080fd5b8063be6e7a4f146103c3578063c4d66de8146103e3578063ccb98ffc1461040357600080fd5b80638456cb59146102d657806388149fb9146102eb5780638da5cb5b146103015780639507d39a14610352578063aa3bf16e14610372578063ad3cb1cc1461039257600080fd5b806352d1902d1161012357806352d1902d1461020f5780635c58934e146102245780635c975abb146102445780635cf3d346146102745780635eb17cdb146102a1578063715018a6146102c157600080fd5b806302ed7af11461016b5780631f7b6d32146101965780633197cbb6146101b95780633f4ba83a146101cf57806349713811146101e65780634f1ef286146101fc575b600080fd5b34801561017757600080fd5b506101806104a6565b60405161018d9190611a4f565b60405180910390f35b3480156101a257600080fd5b506101ab610af0565b60405190815260200161018d565b3480156101c557600080fd5b506101ab60035481565b3480156101db57600080fd5b506101e4610b01565b005b3480156101f257600080fd5b506101ab60045481565b6101e461020a366004611aff565b610b13565b34801561021b57600080fd5b506101ab610b32565b34801561023057600080fd5b506101e461023f366004611c25565b610b4f565b34801561025057600080fd5b50600080516020611e768339815191525460ff16604051901515815260200161018d565b34801561028057600080fd5b5061029461028f366004611c6c565b610cb1565b60405161018d9190611cab565b3480156102ad57600080fd5b506101e46102bc366004611cde565b610d4b565b3480156102cd57600080fd5b506101e4610d58565b3480156102e257600080fd5b506101e4610d6a565b3480156102f757600080fd5b506101ab60025481565b34801561030d57600080fd5b507f9016d09d72d40fdae2fd8ceac6b6234c7706214fd39c1cd1e609a0528c199300546001600160a01b03165b6040516001600160a01b03909116815260200161018d565b34801561035e57600080fd5b5061033a61036d366004611cde565b610d7a565b34801561037e57600080fd5b506101e461038d366004611cf7565b610db9565b34801561039e57600080fd5b50610294604051806040016040528060058152602001640352e302e360dc1b81525081565b3480156103cf57600080fd5b506101e46103de366004611cde565b610f5c565b3480156103ef57600080fd5b506101e46103fe366004611c6c565b610f69565b34801561040f57600080fd5b506101e461041e366004611cde565b6110a8565b34801561042f57600080fd5b506101ab61043e366004611c6c565b60056020526000908152604090205481565b34801561045c57600080fd5b506101e461046b366004611cde565b6110b5565b34801561047c57600080fd5b506101ab60015481565b34801561049257600080fd5b506101e46104a1366004611c6c565b6110c2565b6060600080828180805b600454821080156104c957506104c66006611100565b82105b15610579576104d960068361110b565b8783815181106104eb576104eb611d4e565b60200260200101906001600160a01b031690816001600160a01b0316815250506005600088848151811061052157610521611d4e565b60200260200101516001600160a01b03166001600160a01b031681526020019081526020016000205484838151811061055c5761055c611d4e565b60209081029190910101528161057181611d7a565b9250506104b0565b600091505b600160045461058d9190611d93565b821080156105af575060016105a26006611100565b6105ac9190611d93565b82105b1561074d576105bf826001611da6565b90505b600454811080156105db57506105d86006611100565b81105b1561073b578382815181106105f2576105f2611d4e565b602002602001015184828151811061060c5761060c611d4e565b602002602001015111156107295786818151811061062c5761062c611d4e565b6020026020010151925086828151811061064857610648611d4e565b602002602001015187828151811061066257610662611d4e565b60200260200101906001600160a01b031690816001600160a01b0316815250508287838151811061069557610695611d4e565b60200260200101906001600160a01b031690816001600160a01b0316815250508381815181106106c7576106c7611d4e565b602002602001015195508382815181106106e3576106e3611d4e565b60200260200101518482815181106106fd576106fd611d4e565b6020026020010181815250508584838151811061071c5761071c611d4e565b6020026020010181815250505b8061073381611d7a565b9150506105c2565b8161074581611d7a565b92505061057e565b60045461075a6006611100565b106107685750505050505090565b60045491505b6107786006611100565b821015610ae75761078a60068361110b565b925083600160045461079c9190611d93565b815181106107ac576107ac611d4e565b602002602001015160056000856001600160a01b03166001600160a01b03168152602001908152602001600020541115610adc57836000815181106107f3576107f3611d4e565b602002602001015160056000856001600160a01b03166001600160a01b03168152602001908152602001600020541061093b575060015b6004548110156108cb5783610840600183611d93565b8151811061085057610850611d4e565b602002602001015184828151811061086a5761086a611d4e565b602090810291909101015286610881600183611d93565b8151811061089157610891611d4e565b60200260200101518782815181106108ab576108ab611d4e565b6001600160a01b039092166020928302919091019091015260010161082a565b6001600160a01b0383166000908152600560205260408120548551909186916108f6576108f6611d4e565b602002602001018181525050828760008151811061091657610916611d4e565b60200260200101906001600160a01b031690816001600160a01b031681525050610adc565b600160045461094a9190611d93565b9450600260045461095b9190611d93565b90505b80156109c05783818151811061097657610976611d4e565b602002602001015160056000856001600160a01b03166001600160a01b031681526020019081526020016000205411156109ae578094505b806109b881611db9565b91505061095e565b6109cb856001611da6565b90505b600454811015610a6f57836109e4600183611d93565b815181106109f4576109f4611d4e565b6020026020010151848281518110610a0e57610a0e611d4e565b602090810291909101015286610a25600183611d93565b81518110610a3557610a35611d4e565b6020026020010151878281518110610a4f57610a4f611d4e565b6001600160a01b03909216602092830291909101909101526001016109ce565b6001600160a01b0383166000908152600560205260409020548451859087908110610a9c57610a9c611d4e565b60200260200101818152505082878681518110610abb57610abb611d4e565b60200260200101906001600160a01b031690816001600160a01b0316815250505b60019091019061076e565b50505050505090565b6000610afc6006611100565b905090565b610b0961111e565b610b11611179565b565b610b1b6111d9565b610b248261127e565b610b2e8282611286565b5050565b6000610b3c611343565b50600080516020611e5683398151915290565b610b5761138c565b600254421080610b68575060035442115b15610b865760405163583c0b1f60e11b815260040160405180910390fd5b60408051336020820152908101839052600090606001604051602081830303815290604052805190602001209050610bc182600154836113bd565b610beb57604051627560ab60e91b8152336004820152602481018490526044015b60405180910390fd5b33600881901c6000908152600c6020526040902054600160ff83161b16610c27576040516329c189d360e11b8152336004820152602401610be2565b6000610c3f610c376009336113d3565b60069061110b565b6001600160a01b038116600090815260056020526040902054909150610c66908690611d93565b6001600160a01b038216600090815260056020908152604080832093909355600885901c8252600c9052208054600160ff85161b19169055610ca96009336113e8565b505050505050565b600d6020526000908152604090208054610cca90611dd0565b80601f0160208091040260200160405190810160405280929190818152602001828054610cf690611dd0565b8015610d435780601f10610d1857610100808354040283529160200191610d43565b820191906000526020600020905b815481529060010190602001808311610d2657829003601f168201915b505050505081565b610d5361111e565b600255565b610d6061111e565b610b1160006113fd565b610d7261111e565b610b1161146e565b6000610d866006611100565b8210610da857604051634c0305a360e11b815260048101839052602401610be2565b610db360068361110b565b92915050565b610dc161138c565b600254421080610dd2575060035442115b15610df05760405163583c0b1f60e11b815260040160405180910390fd5b60408051336020820152908101849052600090606001604051602081830303815290604052805190602001209050610e2b83600154836113bd565b610e5057604051627560ab60e91b815233600482015260248101859052604401610be2565b33600881901c6000908152600c6020526040902054600160ff83161b1615610e8d57604051633512759d60e21b8152336004820152602401610be2565b600881901c6000908152600c602052604090208054600160ff84161b1790556001600160a01b038316600090815260056020526040902054610ed0908690611da6565b6001600160a01b0384166000908152600560205260408120919091555b610ef76006611100565b811015610f3e576001600160a01b038416610f1360068361110b565b6001600160a01b031603610f3657610f2d600933836114b7565b50505050505050565b600101610eed565b610f4a600682866114d5565b50610f2d600933836114b7565b505050565b610f6461111e565b600455565b7ff0c57e16840df040f15088dc2f81fe391c3923bec73e23a9662efc9c229c6a008054600160401b810460ff16159067ffffffffffffffff16600081158015610faf5750825b905060008267ffffffffffffffff166001148015610fcc5750303b155b905081158015610fda575080155b15610ff85760405163f92ee8a960e01b815260040160405180910390fd5b845467ffffffffffffffff19166001178555831561102257845460ff60401b1916600160401b1785555b60005460ff1661105b57611035866114eb565b61103d6114fc565b611045611504565b61104d611514565b6000805460ff191660011790555b8315610ca957845460ff60401b19168555604051600181527fc7f505b2f371ae2175ee4913f4499e1f2633a7b5936321eed1cdaeb6115181d29060200160405180910390a1505050505050565b6110b061111e565b600355565b6110bd61111e565b600155565b6110ca61111e565b6001600160a01b0381166110f457604051631e4fbdf760e01b815260006004820152602401610be2565b6110fd816113fd565b50565b6000610db382611524565b6000611117838361152f565b9392505050565b336111507f9016d09d72d40fdae2fd8ceac6b6234c7706214fd39c1cd1e609a0528c199300546001600160a01b031690565b6001600160a01b031614610b115760405163118cdaa760e01b8152336004820152602401610be2565b611181611576565b600080516020611e76833981519152805460ff191681557f5db9ee0a495bf2e6ff9c91a7834c1ba4fdd244a5e8aa4e537bd38aeae4b073aa335b6040516001600160a01b03909116815260200160405180910390a150565b306001600160a01b037f000000000000000000000000000000000000000000000000000000000000000016148061126057507f00000000000000000000000000000000000000000000000000000000000000006001600160a01b0316611254600080516020611e56833981519152546001600160a01b031690565b6001600160a01b031614155b15610b115760405163703e46dd60e11b815260040160405180910390fd5b6110fd61111e565b816001600160a01b03166352d1902d6040518163ffffffff1660e01b8152600401602060405180830381865afa9250505080156112e0575060408051601f3d908101601f191682019092526112dd91810190611e0a565b60015b61130857604051634c9c8ce360e01b81526001600160a01b0383166004820152602401610be2565b600080516020611e56833981519152811461133957604051632a87526960e21b815260048101829052602401610be2565b610f5783836115a6565b306001600160a01b037f00000000000000000000000000000000000000000000000000000000000000001614610b115760405163703e46dd60e11b815260040160405180910390fd5b600080516020611e768339815191525460ff1615610b115760405163d93c066560e01b815260040160405180910390fd5b6000826113ca85846115fc565b14949350505050565b6000611117836001600160a01b03841661152f565b6000611117836001600160a01b03841661163f565b7f9016d09d72d40fdae2fd8ceac6b6234c7706214fd39c1cd1e609a0528c19930080546001600160a01b031981166001600160a01b03848116918217845560405192169182907f8be0079c531659141344cd1fd0a4f28419497f9722a3daafe3b4186f6b6457e090600090a3505050565b61147661138c565b600080516020611e76833981519152805460ff191660011781557f62e78cea01bee320cd4e420270b5ea74000d11b0c9f74754ebdbfc544b05a258336111bb565b60006114cd846001600160a01b0385168461165c565b949350505050565b60006114cd84846001600160a01b03851661165c565b6114f3611679565b6110fd816116c2565b610b11611679565b61150c611679565b610b116116ca565b61151c611679565b610b116116eb565b6000610db382611719565b60008181526002830160205260408120548015801561155557506115538484611723565b155b156111175760405163015ab34360e11b815260048101849052602401610be2565b600080516020611e768339815191525460ff16610b1157604051638dfc202b60e01b815260040160405180910390fd5b6115af8261172f565b6040516001600160a01b038316907fbc7cd75a20ee27fd9adebab32041f755214dbc6bffa90cc0225b39da2e5c2d3b90600090a28051156115f457610f578282611794565b610b2e61180a565b600081815b84518110156116375761162d8286838151811061162057611620611d4e565b6020026020010151611829565b9150600101611601565b509392505050565b600081815260028301602052604081208190556111178383611858565b600082815260028401602052604081208290556114cd8484611864565b7ff0c57e16840df040f15088dc2f81fe391c3923bec73e23a9662efc9c229c6a0054600160401b900460ff16610b1157604051631afcd79f60e31b815260040160405180910390fd5b6110ca611679565b6116d2611679565b600080516020611e76833981519152805460ff19169055565b6116f3611679565b60017f9b779b17422d0df92223018b32b4d1fa46e071723d6817e2486d003becc55f0055565b6000610db3825490565b60006111178383611870565b806001600160a01b03163b60000361176557604051634c9c8ce360e01b81526001600160a01b0382166004820152602401610be2565b600080516020611e5683398151915280546001600160a01b0319166001600160a01b0392909216919091179055565b6060600080846001600160a01b0316846040516117b19190611e23565b600060405180830381855af49150503d80600081146117ec576040519150601f19603f3d011682016040523d82523d6000602084013e6117f1565b606091505b5091509150611801858383611888565b95945050505050565b3415610b115760405163b398979f60e01b815260040160405180910390fd5b6000818310611845576000828152602084905260409020611117565b6000838152602083905260409020611117565b600061111783836118e4565b600061111783836119d7565b60008181526001830160205260408120541515611117565b60608261189d5761189882611a26565b611117565b81511580156118b457506001600160a01b0384163b155b156118dd57604051639996b31560e01b81526001600160a01b0385166004820152602401610be2565b5080611117565b600081815260018301602052604081205480156119cd576000611908600183611d93565b855490915060009061191c90600190611d93565b905080821461198157600086600001828154811061193c5761193c611d4e565b906000526020600020015490508087600001848154811061195f5761195f611d4e565b6000918252602080832090910192909255918252600188019052604090208390555b855486908061199257611992611e3f565b600190038181906000526020600020016000905590558560010160008681526020019081526020016000206000905560019350505050610db3565b6000915050610db3565b6000818152600183016020526040812054611a1e57508154600181810184556000848152602080822090930184905584548482528286019093526040902091909155610db3565b506000610db3565b805115611a365780518082602001fd5b604051630a12f52160e11b815260040160405180910390fd5b6020808252825182820181905260009190848201906040850190845b81811015611a905783516001600160a01b031683529284019291840191600101611a6b565b50909695505050505050565b80356001600160a01b0381168114611ab357600080fd5b919050565b634e487b7160e01b600052604160045260246000fd5b604051601f8201601f1916810167ffffffffffffffff81118282101715611af757611af7611ab8565b604052919050565b60008060408385031215611b1257600080fd5b611b1b83611a9c565b915060208084013567ffffffffffffffff80821115611b3957600080fd5b818601915086601f830112611b4d57600080fd5b813581811115611b5f57611b5f611ab8565b611b71601f8201601f19168501611ace565b91508082528784828501011115611b8757600080fd5b80848401858401376000848284010152508093505050509250929050565b600082601f830112611bb657600080fd5b8135602067ffffffffffffffff821115611bd257611bd2611ab8565b8160051b611be1828201611ace565b9283528481018201928281019087851115611bfb57600080fd5b83870192505b84831015611c1a57823582529183019190830190611c01565b979650505050505050565b60008060408385031215611c3857600080fd5b82359150602083013567ffffffffffffffff811115611c5657600080fd5b611c6285828601611ba5565b9150509250929050565b600060208284031215611c7e57600080fd5b61111782611a9c565b60005b83811015611ca2578181015183820152602001611c8a565b50506000910152565b6020815260008251806020840152611cca816040850160208701611c87565b601f01601f19169190910160400192915050565b600060208284031215611cf057600080fd5b5035919050565b600080600060608486031215611d0c57600080fd5b83359250602084013567ffffffffffffffff811115611d2a57600080fd5b611d3686828701611ba5565b925050611d4560408501611a9c565b90509250925092565b634e487b7160e01b600052603260045260246000fd5b634e487b7160e01b600052601160045260246000fd5b600060018201611d8c57611d8c611d64565b5060010190565b81810381811115610db357610db3611d64565b80820180821115610db357610db3611d64565b600081611dc857611dc8611d64565b506000190190565b600181811c90821680611de457607f821691505b602082108103611e0457634e487b7160e01b600052602260045260246000fd5b50919050565b600060208284031215611e1c57600080fd5b5051919050565b60008251611e35818460208701611c87565b9190910192915050565b634e487b7160e01b600052603160045260246000fdfe360894a13ba1a3210667c828492db98dca3e2076cc3735a920a3ca505d382bbccd5ed15c6e187e77e9aee88184c21f4f2182ab5827cb3b7e07fbedcd63f03300a264697066735822122001fb5ef6ba2c4329b07bb36d09077f973bb2e786c2b4aa0558cd0913fbf605d464736f6c63430008190033","linkReferences":{}},"methodIdentifiers":{"UPGRADE_INTERFACE_VERSION()":"ad3cb1cc","beginTime()":"88149fb9","endTime()":"3197cbb6","get(uint256)":"9507d39a","getwinners()":"02ed7af1","initialize(address)":"c4d66de8","length()":"1f7b6d32","names(address)":"5cf3d346","owner()":"8da5cb5b","pause()":"8456cb59","paused()":"5c975abb","proxiableUUID()":"52d1902d","renounceOwnership()":"715018a6","root()":"ebf0c717","setBeginTime(uint256)":"5eb17cdb","setEndTime(uint256)":"ccb98ffc","setRoot(bytes32)":"dab5f340","setWinnersCount(uint256)":"be6e7a4f","transferOwnership(address)":"f2fde38b","unpause()":"3f4ba83a","unvote(uint256,bytes32[])":"5c58934e","upgradeToAndCall(address,bytes)":"4f1ef286","vote(uint256,bytes32[],address)":"aa3bf16e","votes(address)":"d8bff5a5","winnersCount()":"49713811"},"id":0}