{"abi":[{"type":"constructor","inputs":[],"stateMutability":"nonpayable"},{"type":"function","name":"UPGRADE_INTERFACE_VERSION","inputs":[],"outputs":[{"name":"","type":"string","internalType":"string"}],"stateMutability":"view"},{"type":"function","name":"beginTime","inputs":[],"outputs":[{"name":"","type":"uint256","internalType":"uint256"}],"stateMutability":"view"},{"type":"function","name":"endTime","inputs":[],"outputs":[{"name":"","type":"uint256","internalType":"uint256"}],"stateMutability":"view"},{"type":"function","name":"get","inputs":[{"name":"i","type":"uint256","internalType":"uint256"}],"outputs":[{"name":"","type":"address","internalType":"address"}],"stateMutability":"view"},{"type":"function","name":"getwinners","inputs":[],"outputs":[{"name":"result","type":"address[]","internalType":"address[]"}],"stateMutability":"view"},{"type":"function","name":"initialize","inputs":[{"name":"owner_","type":"address","internalType":"address"}],"outputs":[],"stateMutability":"nonpayable"},{"type":"function","name":"length","inputs":[],"outputs":[{"name":"","type":"uint256","internalType":"uint256"}],"stateMutability":"view"},{"type":"function","name":"names","inputs":[{"name":"","type":"address","internalType":"address"}],"outputs":[{"name":"","type":"string","internalType":"string"}],"stateMutability":"view"},{"type":"function","name":"owner","inputs":[],"outputs":[{"name":"","type":"address","internalType":"address"}],"stateMutability":"view"},{"type":"function","name":"pause","inputs":[],"outputs":[],"stateMutability":"nonpayable"},{"type":"function","name":"paused","inputs":[],"outputs":[{"name":"","type":"bool","internalType":"bool"}],"stateMutability":"view"},{"type":"function","name":"proxiableUUID","inputs":[],"outputs":[{"name":"","type":"bytes32","internalType":"bytes32"}],"stateMutability":"view"},{"type":"function","name":"renounceOwnership","inputs":[],"outputs":[],"stateMutability":"nonpayable"},{"type":"function","name":"root","inputs":[],"outputs":[{"name":"","type":"bytes32","internalType":"bytes32"}],"stateMutability":"view"},{"type":"function","name":"setBeginTime","inputs":[{"name":"newTime","type":"uint256","internalType":"uint256"}],"outputs":[],"stateMutability":"nonpayable"},{"type":"function","name":"setEndTime","inputs":[{"name":"newTime","type":"uint256","internalType":"uint256"}],"outputs":[],"stateMutability":"nonpayable"},{"type":"function","name":"setRoot","inputs":[{"name":"newRoot","type":"bytes32","internalType":"bytes32"}],"outputs":[],"stateMutability":"nonpayable"},{"type":"function","name":"setWinnersCount","inputs":[{"name":"newWinnersCount","type":"uint256","internalType":"uint256"}],"outputs":[],"stateMutability":"nonpayable"},{"type":"function","name":"transferOwnership","inputs":[{"name":"newOwner","type":"address","internalType":"address"}],"outputs":[],"stateMutability":"nonpayable"},{"type":"function","name":"unpause","inputs":[],"outputs":[],"stateMutability":"nonpayable"},{"type":"function","name":"unvote","inputs":[{"name":"amount","type":"uint256","internalType":"uint256"},{"name":"proof","type":"bytes32[]","internalType":"bytes32[]"}],"outputs":[],"stateMutability":"nonpayable"},{"type":"function","name":"upgradeToAndCall","inputs":[{"name":"newImplementation","type":"address","internalType":"address"},{"name":"data","type":"bytes","internalType":"bytes"}],"outputs":[],"stateMutability":"payable"},{"type":"function","name":"vote","inputs":[{"name":"amount","type":"uint256","internalType":"uint256"},{"name":"proof","type":"bytes32[]","internalType":"bytes32[]"},{"name":"voteFor","type":"address","internalType":"address"}],"outputs":[],"stateMutability":"nonpayable"},{"type":"function","name":"votes","inputs":[{"name":"","type":"address","internalType":"address"}],"outputs":[{"name":"","type":"uint256","internalType":"uint256"}],"stateMutability":"view"},{"type":"function","name":"winnersCount","inputs":[],"outputs":[{"name":"","type":"uint256","internalType":"uint256"}],"stateMutability":"view"},{"type":"event","name":"Initialized","inputs":[{"name":"version","type":"uint64","indexed":false,"internalType":"uint64"}],"anonymous":false},{"type":"event","name":"OwnershipTransferred","inputs":[{"name":"previousOwner","type":"address","indexed":true,"internalType":"address"},{"name":"newOwner","type":"address","indexed":true,"internalType":"address"}],"anonymous":false},{"type":"event","name":"Paused","inputs":[{"name":"account","type":"address","indexed":false,"internalType":"address"}],"anonymous":false},{"type":"event","name":"Unpaused","inputs":[{"name":"account","type":"address","indexed":false,"internalType":"address"}],"anonymous":false},{"type":"event","name":"Upgraded","inputs":[{"name":"implementation","type":"address","indexed":true,"internalType":"address"}],"anonymous":false},{"type":"error","name":"AddressEmptyCode","inputs":[{"name":"target","type":"address","internalType":"address"}]},{"type":"error","name":"AlreadyVoted","inputs":[{"name":"sender","type":"address","internalType":"address"}]},{"type":"error","name":"ERC1967InvalidImplementation","inputs":[{"name":"implementation","type":"address","internalType":"address"}]},{"type":"error","name":"ERC1967NonPayable","inputs":[]},{"type":"error","name":"EnforcedPause","inputs":[]},{"type":"error","name":"EnumerableMapNonexistentKey","inputs":[{"name":"key","type":"bytes32","internalType":"bytes32"}]},{"type":"error","name":"ExpectedPause","inputs":[]},{"type":"error","name":"FailedInnerCall","inputs":[]},{"type":"error","name":"InvalidInitialization","inputs":[]},{"type":"error","name":"NotInitializing","inputs":[]},{"type":"error","name":"NotPermittedTime","inputs":[]},{"type":"error","name":"NotVoted","inputs":[{"name":"sender","type":"address","internalType":"address"}]},{"type":"error","name":"OwnableInvalidOwner","inputs":[{"name":"owner","type":"address","internalType":"address"}]},{"type":"error","name":"OwnableUnauthorizedAccount","inputs":[{"name":"account","type":"address","internalType":"address"}]},{"type":"error","name":"ReentrancyGuardReentrantCall","inputs":[]},{"type":"error","name":"UUPSUnauthorizedCallContext","inputs":[]},{"type":"error","name":"UUPSUnsupportedProxiableUUID","inputs":[{"name":"slot","type":"bytes32","internalType":"bytes32"}]},{"type":"error","name":"WrongMerkleProof","inputs":[{"name":"sender","type":"address","internalType":"address"},{"name":"amount","type":"uint256","internalType":"uint256"}]}],"bytecode":{"object":"0x60a06040523060805234801561001457600080fd5b5061001d610022565b6100d4565b7ff0c57e16840df040f15088dc2f81fe391c3923bec73e23a9662efc9c229c6a00805468010000000000000000900460ff16156100725760405163f92ee8a960e01b815260040160405180910390fd5b80546001600160401b03908116146100d15780546001600160401b0319166001600160401b0390811782556040519081527fc7f505b2f371ae2175ee4913f4499e1f2633a7b5936321eed1cdaeb6115181d29060200160405180910390a15b50565b608051611e9f6100fd600039600081816111b8015281816111e101526113220152611e9f6000f3fe6080604052600436106101665760003560e01c80638456cb59116100d1578063be6e7a4f1161008a578063d8bff5a511610064578063d8bff5a514610423578063dab5f34014610450578063ebf0c71714610470578063f2fde38b1461048657600080fd5b8063be6e7a4f146103c3578063c4d66de8146103e3578063ccb98ffc1461040357600080fd5b80638456cb59146102d657806388149fb9146102eb5780638da5cb5b146103015780639507d39a14610352578063aa3bf16e14610372578063ad3cb1cc1461039257600080fd5b806352d1902d1161012357806352d1902d1461020f5780635c58934e146102245780635c975abb146102445780635cf3d346146102745780635eb17cdb146102a1578063715018a6146102c157600080fd5b806302ed7af11461016b5780631f7b6d32146101965780633197cbb6146101b95780633f4ba83a146101cf57806349713811146101e65780634f1ef286146101fc575b600080fd5b34801561017757600080fd5b506101806104a6565b60405161018d9190611a23565b60405180910390f35b3480156101a257600080fd5b506101ab610af0565b60405190815260200161018d565b3480156101c557600080fd5b506101ab60035481565b3480156101db57600080fd5b506101e4610b01565b005b3480156101f257600080fd5b506101ab60045481565b6101e461020a366004611ad3565b610b13565b34801561021b57600080fd5b506101ab610b32565b34801561023057600080fd5b506101e461023f366004611bf9565b610b4f565b34801561025057600080fd5b50600080516020611e4a8339815191525460ff16604051901515815260200161018d565b34801561028057600080fd5b5061029461028f366004611c40565b610cb1565b60405161018d9190611c7f565b3480156102ad57600080fd5b506101e46102bc366004611cb2565b610d4b565b3480156102cd57600080fd5b506101e4610d58565b3480156102e257600080fd5b506101e4610d6a565b3480156102f757600080fd5b506101ab60025481565b34801561030d57600080fd5b507f9016d09d72d40fdae2fd8ceac6b6234c7706214fd39c1cd1e609a0528c199300546001600160a01b03165b6040516001600160a01b03909116815260200161018d565b34801561035e57600080fd5b5061033a61036d366004611cb2565b610d7a565b34801561037e57600080fd5b506101e461038d366004611ccb565b610d8d565b34801561039e57600080fd5b50610294604051806040016040528060058152602001640352e302e360dc1b81525081565b3480156103cf57600080fd5b506101e46103de366004611cb2565b610f30565b3480156103ef57600080fd5b506101e46103fe366004611c40565b610f3d565b34801561040f57600080fd5b506101e461041e366004611cb2565b61107c565b34801561042f57600080fd5b506101ab61043e366004611c40565b60056020526000908152604090205481565b34801561045c57600080fd5b506101e461046b366004611cb2565b611089565b34801561047c57600080fd5b506101ab60015481565b34801561049257600080fd5b506101e46104a1366004611c40565b611096565b6060600080828180805b600454821080156104c957506104c660066110d4565b82105b15610579576104d96006836110df565b8783815181106104eb576104eb611d22565b60200260200101906001600160a01b031690816001600160a01b0316815250506005600088848151811061052157610521611d22565b60200260200101516001600160a01b03166001600160a01b031681526020019081526020016000205484838151811061055c5761055c611d22565b60209081029190910101528161057181611d4e565b9250506104b0565b600091505b600160045461058d9190611d67565b821080156105af575060016105a260066110d4565b6105ac9190611d67565b82105b1561074d576105bf826001611d7a565b90505b600454811080156105db57506105d860066110d4565b81105b1561073b578382815181106105f2576105f2611d22565b602002602001015184828151811061060c5761060c611d22565b602002602001015111156107295786818151811061062c5761062c611d22565b6020026020010151925086828151811061064857610648611d22565b602002602001015187828151811061066257610662611d22565b60200260200101906001600160a01b031690816001600160a01b0316815250508287838151811061069557610695611d22565b60200260200101906001600160a01b031690816001600160a01b0316815250508381815181106106c7576106c7611d22565b602002602001015195508382815181106106e3576106e3611d22565b60200260200101518482815181106106fd576106fd611d22565b6020026020010181815250508584838151811061071c5761071c611d22565b6020026020010181815250505b8061073381611d4e565b9150506105c2565b8161074581611d4e565b92505061057e565b60045461075a60066110d4565b106107685750505050505090565b60045491505b61077860066110d4565b821015610ae75761078a6006836110df565b925083600160045461079c9190611d67565b815181106107ac576107ac611d22565b602002602001015160056000856001600160a01b03166001600160a01b03168152602001908152602001600020541115610adc57836000815181106107f3576107f3611d22565b602002602001015160056000856001600160a01b03166001600160a01b03168152602001908152602001600020541061093b575060015b6004548110156108cb5783610840600183611d67565b8151811061085057610850611d22565b602002602001015184828151811061086a5761086a611d22565b602090810291909101015286610881600183611d67565b8151811061089157610891611d22565b60200260200101518782815181106108ab576108ab611d22565b6001600160a01b039092166020928302919091019091015260010161082a565b6001600160a01b0383166000908152600560205260408120548551909186916108f6576108f6611d22565b602002602001018181525050828760008151811061091657610916611d22565b60200260200101906001600160a01b031690816001600160a01b031681525050610adc565b600160045461094a9190611d67565b9450600260045461095b9190611d67565b90505b80156109c05783818151811061097657610976611d22565b602002602001015160056000856001600160a01b03166001600160a01b031681526020019081526020016000205411156109ae578094505b806109b881611d8d565b91505061095e565b6109cb856001611d7a565b90505b600454811015610a6f57836109e4600183611d67565b815181106109f4576109f4611d22565b6020026020010151848281518110610a0e57610a0e611d22565b602090810291909101015286610a25600183611d67565b81518110610a3557610a35611d22565b6020026020010151878281518110610a4f57610a4f611d22565b6001600160a01b03909216602092830291909101909101526001016109ce565b6001600160a01b0383166000908152600560205260409020548451859087908110610a9c57610a9c611d22565b60200260200101818152505082878681518110610abb57610abb611d22565b60200260200101906001600160a01b031690816001600160a01b0316815250505b60019091019061076e565b50505050505090565b6000610afc60066110d4565b905090565b610b096110f2565b610b1161114d565b565b610b1b6111ad565b610b2482611252565b610b2e828261125a565b5050565b6000610b3c611317565b50600080516020611e2a83398151915290565b610b57611360565b600254421080610b68575060035442115b15610b865760405163583c0b1f60e11b815260040160405180910390fd5b60408051336020820152908101839052600090606001604051602081830303815290604052805190602001209050610bc18260015483611391565b610beb57604051627560ab60e91b8152336004820152602481018490526044015b60405180910390fd5b33600881901c6000908152600c6020526040902054600160ff83161b16610c27576040516329c189d360e11b8152336004820152602401610be2565b6000610c3f610c376009336113a7565b6006906110df565b6001600160a01b038116600090815260056020526040902054909150610c66908690611d67565b6001600160a01b038216600090815260056020908152604080832093909355600885901c8252600c9052208054600160ff85161b19169055610ca96009336113bc565b505050505050565b600d6020526000908152604090208054610cca90611da4565b80601f0160208091040260200160405190810160405280929190818152602001828054610cf690611da4565b8015610d435780601f10610d1857610100808354040283529160200191610d43565b820191906000526020600020905b815481529060010190602001808311610d2657829003601f168201915b505050505081565b610d536110f2565b600255565b610d606110f2565b610b1160006113d1565b610d726110f2565b610b11611442565b6000610d876006836110df565b92915050565b610d95611360565b600254421080610da6575060035442115b15610dc45760405163583c0b1f60e11b815260040160405180910390fd5b60408051336020820152908101849052600090606001604051602081830303815290604052805190602001209050610dff8360015483611391565b610e2457604051627560ab60e91b815233600482015260248101859052604401610be2565b33600881901c6000908152600c6020526040902054600160ff83161b1615610e6157604051633512759d60e21b8152336004820152602401610be2565b600881901c6000908152600c602052604090208054600160ff84161b1790556001600160a01b038316600090815260056020526040902054610ea4908690611d7a565b6001600160a01b0384166000908152600560205260408120919091555b610ecb60066110d4565b811015610f12576001600160a01b038416610ee76006836110df565b6001600160a01b031603610f0a57610f016009338361148b565b50505050505050565b600101610ec1565b610f1e600682866114a9565b50610f016009338361148b565b505050565b610f386110f2565b600455565b7ff0c57e16840df040f15088dc2f81fe391c3923bec73e23a9662efc9c229c6a008054600160401b810460ff16159067ffffffffffffffff16600081158015610f835750825b905060008267ffffffffffffffff166001148015610fa05750303b155b905081158015610fae575080155b15610fcc5760405163f92ee8a960e01b815260040160405180910390fd5b845467ffffffffffffffff191660011785558315610ff657845460ff60401b1916600160401b1785555b60005460ff1661102f57611009866114bf565b6110116114d0565b6110196114d8565b6110216114e8565b6000805460ff191660011790555b8315610ca957845460ff60401b19168555604051600181527fc7f505b2f371ae2175ee4913f4499e1f2633a7b5936321eed1cdaeb6115181d29060200160405180910390a1505050505050565b6110846110f2565b600355565b6110916110f2565b600155565b61109e6110f2565b6001600160a01b0381166110c857604051631e4fbdf760e01b815260006004820152602401610be2565b6110d1816113d1565b50565b6000610d87826114f8565b60006110eb8383611503565b9392505050565b336111247f9016d09d72d40fdae2fd8ceac6b6234c7706214fd39c1cd1e609a0528c199300546001600160a01b031690565b6001600160a01b031614610b115760405163118cdaa760e01b8152336004820152602401610be2565b61115561154a565b600080516020611e4a833981519152805460ff191681557f5db9ee0a495bf2e6ff9c91a7834c1ba4fdd244a5e8aa4e537bd38aeae4b073aa335b6040516001600160a01b03909116815260200160405180910390a150565b306001600160a01b037f000000000000000000000000000000000000000000000000000000000000000016148061123457507f00000000000000000000000000000000000000000000000000000000000000006001600160a01b0316611228600080516020611e2a833981519152546001600160a01b031690565b6001600160a01b031614155b15610b115760405163703e46dd60e11b815260040160405180910390fd5b6110d16110f2565b816001600160a01b03166352d1902d6040518163ffffffff1660e01b8152600401602060405180830381865afa9250505080156112b4575060408051601f3d908101601f191682019092526112b191810190611dde565b60015b6112dc57604051634c9c8ce360e01b81526001600160a01b0383166004820152602401610be2565b600080516020611e2a833981519152811461130d57604051632a87526960e21b815260048101829052602401610be2565b610f2b838361157a565b306001600160a01b037f00000000000000000000000000000000000000000000000000000000000000001614610b115760405163703e46dd60e11b815260040160405180910390fd5b600080516020611e4a8339815191525460ff1615610b115760405163d93c066560e01b815260040160405180910390fd5b60008261139e85846115d0565b14949350505050565b60006110eb836001600160a01b038416611503565b60006110eb836001600160a01b038416611613565b7f9016d09d72d40fdae2fd8ceac6b6234c7706214fd39c1cd1e609a0528c19930080546001600160a01b031981166001600160a01b03848116918217845560405192169182907f8be0079c531659141344cd1fd0a4f28419497f9722a3daafe3b4186f6b6457e090600090a3505050565b61144a611360565b600080516020611e4a833981519152805460ff191660011781557f62e78cea01bee320cd4e420270b5ea74000d11b0c9f74754ebdbfc544b05a2583361118f565b60006114a1846001600160a01b03851684611630565b949350505050565b60006114a184846001600160a01b038516611630565b6114c761164d565b6110d181611696565b610b1161164d565b6114e061164d565b610b1161169e565b6114f061164d565b610b116116bf565b6000610d87826116ed565b600081815260028301602052604081205480158015611529575061152784846116f7565b155b156110eb5760405163015ab34360e11b815260048101849052602401610be2565b600080516020611e4a8339815191525460ff16610b1157604051638dfc202b60e01b815260040160405180910390fd5b61158382611703565b6040516001600160a01b038316907fbc7cd75a20ee27fd9adebab32041f755214dbc6bffa90cc0225b39da2e5c2d3b90600090a28051156115c857610f2b8282611768565b610b2e6117de565b600081815b845181101561160b57611601828683815181106115f4576115f4611d22565b60200260200101516117fd565b91506001016115d5565b509392505050565b600081815260028301602052604081208190556110eb838361182c565b600082815260028401602052604081208290556114a18484611838565b7ff0c57e16840df040f15088dc2f81fe391c3923bec73e23a9662efc9c229c6a0054600160401b900460ff16610b1157604051631afcd79f60e31b815260040160405180910390fd5b61109e61164d565b6116a661164d565b600080516020611e4a833981519152805460ff19169055565b6116c761164d565b60017f9b779b17422d0df92223018b32b4d1fa46e071723d6817e2486d003becc55f0055565b6000610d87825490565b60006110eb8383611844565b806001600160a01b03163b60000361173957604051634c9c8ce360e01b81526001600160a01b0382166004820152602401610be2565b600080516020611e2a83398151915280546001600160a01b0319166001600160a01b0392909216919091179055565b6060600080846001600160a01b0316846040516117859190611df7565b600060405180830381855af49150503d80600081146117c0576040519150601f19603f3d011682016040523d82523d6000602084013e6117c5565b606091505b50915091506117d585838361185c565b95945050505050565b3415610b115760405163b398979f60e01b815260040160405180910390fd5b60008183106118195760008281526020849052604090206110eb565b60008381526020839052604090206110eb565b60006110eb83836118b8565b60006110eb83836119ab565b600081815260018301602052604081205415156110eb565b6060826118715761186c826119fa565b6110eb565b815115801561188857506001600160a01b0384163b155b156118b157604051639996b31560e01b81526001600160a01b0385166004820152602401610be2565b50806110eb565b600081815260018301602052604081205480156119a15760006118dc600183611d67565b85549091506000906118f090600190611d67565b905080821461195557600086600001828154811061191057611910611d22565b906000526020600020015490508087600001848154811061193357611933611d22565b6000918252602080832090910192909255918252600188019052604090208390555b855486908061196657611966611e13565b600190038181906000526020600020016000905590558560010160008681526020019081526020016000206000905560019350505050610d87565b6000915050610d87565b60008181526001830160205260408120546119f257508154600181810184556000848152602080822090930184905584548482528286019093526040902091909155610d87565b506000610d87565b805115611a0a5780518082602001fd5b604051630a12f52160e11b815260040160405180910390fd5b6020808252825182820181905260009190848201906040850190845b81811015611a645783516001600160a01b031683529284019291840191600101611a3f565b50909695505050505050565b80356001600160a01b0381168114611a8757600080fd5b919050565b634e487b7160e01b600052604160045260246000fd5b604051601f8201601f1916810167ffffffffffffffff81118282101715611acb57611acb611a8c565b604052919050565b60008060408385031215611ae657600080fd5b611aef83611a70565b915060208084013567ffffffffffffffff80821115611b0d57600080fd5b818601915086601f830112611b2157600080fd5b813581811115611b3357611b33611a8c565b611b45601f8201601f19168501611aa2565b91508082528784828501011115611b5b57600080fd5b80848401858401376000848284010152508093505050509250929050565b600082601f830112611b8a57600080fd5b8135602067ffffffffffffffff821115611ba657611ba6611a8c565b8160051b611bb5828201611aa2565b9283528481018201928281019087851115611bcf57600080fd5b83870192505b84831015611bee57823582529183019190830190611bd5565b979650505050505050565b60008060408385031215611c0c57600080fd5b82359150602083013567ffffffffffffffff811115611c2a57600080fd5b611c3685828601611b79565b9150509250929050565b600060208284031215611c5257600080fd5b6110eb82611a70565b60005b83811015611c76578181015183820152602001611c5e565b50506000910152565b6020815260008251806020840152611c9e816040850160208701611c5b565b601f01601f19169190910160400192915050565b600060208284031215611cc457600080fd5b5035919050565b600080600060608486031215611ce057600080fd5b83359250602084013567ffffffffffffffff811115611cfe57600080fd5b611d0a86828701611b79565b925050611d1960408501611a70565b90509250925092565b634e487b7160e01b600052603260045260246000fd5b634e487b7160e01b600052601160045260246000fd5b600060018201611d6057611d60611d38565b5060010190565b81810381811115610d8757610d87611d38565b80820180821115610d8757610d87611d38565b600081611d9c57611d9c611d38565b506000190190565b600181811c90821680611db857607f821691505b602082108103611dd857634e487b7160e01b600052602260045260246000fd5b50919050565b600060208284031215611df057600080fd5b5051919050565b60008251611e09818460208701611c5b565b9190910192915050565b634e487b7160e01b600052603160045260246000fdfe360894a13ba1a3210667c828492db98dca3e2076cc3735a920a3ca505d382bbccd5ed15c6e187e77e9aee88184c21f4f2182ab5827cb3b7e07fbedcd63f03300a264697066735822122089f523c30716b76a95c15360144d763c62953bd19f948ff7277f32f93108aa0c64736f6c63430008190033","linkReferences":{}},"methodIdentifiers":{"UPGRADE_INTERFACE_VERSION()":"ad3cb1cc","beginTime()":"88149fb9","endTime()":"3197cbb6","get(uint256)":"9507d39a","getwinners()":"02ed7af1","initialize(address)":"c4d66de8","length()":"1f7b6d32","names(address)":"5cf3d346","owner()":"8da5cb5b","pause()":"8456cb59","paused()":"5c975abb","proxiableUUID()":"52d1902d","renounceOwnership()":"715018a6","root()":"ebf0c717","setBeginTime(uint256)":"5eb17cdb","setEndTime(uint256)":"ccb98ffc","setRoot(bytes32)":"dab5f340","setWinnersCount(uint256)":"be6e7a4f","transferOwnership(address)":"f2fde38b","unpause()":"3f4ba83a","unvote(uint256,bytes32[])":"5c58934e","upgradeToAndCall(address,bytes)":"4f1ef286","vote(uint256,bytes32[],address)":"aa3bf16e","votes(address)":"d8bff5a5","winnersCount()":"49713811"},"id":0}