{"abi":[{"type":"constructor","inputs":[],"stateMutability":"payable"},{"type":"receive","stateMutability":"payable"},{"type":"function","name":"DOMAIN_SEPARATOR","inputs":[],"outputs":[{"name":"","type":"bytes32","internalType":"bytes32"}],"stateMutability":"view"},{"type":"function","name":"UPGRADE_INTERFACE_VERSION","inputs":[],"outputs":[{"name":"","type":"string","internalType":"string"}],"stateMutability":"view"},{"type":"function","name":"allowance","inputs":[{"name":"owner","type":"address","internalType":"address"},{"name":"spender","type":"address","internalType":"address"}],"outputs":[{"name":"","type":"uint256","internalType":"uint256"}],"stateMutability":"view"},{"type":"function","name":"approve","inputs":[{"name":"spender","type":"address","internalType":"address"},{"name":"value","type":"uint256","internalType":"uint256"}],"outputs":[{"name":"","type":"bool","internalType":"bool"}],"stateMutability":"nonpayable"},{"type":"function","name":"balanceOf","inputs":[{"name":"account","type":"address","internalType":"address"}],"outputs":[{"name":"","type":"uint256","internalType":"uint256"}],"stateMutability":"view"},{"type":"function","name":"burn","inputs":[{"name":"value","type":"uint256","internalType":"uint256"}],"outputs":[],"stateMutability":"nonpayable"},{"type":"function","name":"burn","inputs":[{"name":"to","type":"address","internalType":"address"},{"name":"value","type":"uint256","internalType":"uint256"}],"outputs":[],"stateMutability":"nonpayable"},{"type":"function","name":"burnFrom","inputs":[{"name":"account","type":"address","internalType":"address"},{"name":"value","type":"uint256","internalType":"uint256"}],"outputs":[],"stateMutability":"nonpayable"},{"type":"function","name":"decimals","inputs":[],"outputs":[{"name":"","type":"uint8","internalType":"uint8"}],"stateMutability":"view"},{"type":"function","name":"eip712Domain","inputs":[],"outputs":[{"name":"fields","type":"bytes1","internalType":"bytes1"},{"name":"name","type":"string","internalType":"string"},{"name":"version","type":"string","internalType":"string"},{"name":"chainId","type":"uint256","internalType":"uint256"},{"name":"verifyingContract","type":"address","internalType":"address"},{"name":"salt","type":"bytes32","internalType":"bytes32"},{"name":"extensions","type":"uint256[]","internalType":"uint256[]"}],"stateMutability":"view"},{"type":"function","name":"exchange","inputs":[{"name":"amount","type":"uint256","internalType":"uint256"}],"outputs":[{"name":"","type":"uint256","internalType":"uint256"}],"stateMutability":"nonpayable"},{"type":"function","name":"initialize","inputs":[{"name":"owner_","type":"address","internalType":"address"},{"name":"priceFeed_","type":"address","internalType":"address"},{"name":"price_","type":"uint256","internalType":"uint256"},{"name":"wallet_","type":"address","internalType":"address payable"}],"outputs":[],"stateMutability":"nonpayable"},{"type":"function","name":"isTaxFree","inputs":[{"name":"to","type":"address","internalType":"address"}],"outputs":[{"name":"","type":"bool","internalType":"bool"}],"stateMutability":"view"},{"type":"function","name":"minimalTax","inputs":[],"outputs":[{"name":"","type":"uint256","internalType":"uint256"}],"stateMutability":"view"},{"type":"function","name":"mint","inputs":[{"name":"to","type":"address","internalType":"address"},{"name":"amount","type":"uint256","internalType":"uint256"}],"outputs":[],"stateMutability":"nonpayable"},{"type":"function","name":"name","inputs":[],"outputs":[{"name":"","type":"string","internalType":"string"}],"stateMutability":"view"},{"type":"function","name":"nonces","inputs":[{"name":"owner","type":"address","internalType":"address"}],"outputs":[{"name":"","type":"uint256","internalType":"uint256"}],"stateMutability":"view"},{"type":"function","name":"oldToken","inputs":[],"outputs":[{"name":"","type":"address","internalType":"address"}],"stateMutability":"view"},{"type":"function","name":"owner","inputs":[],"outputs":[{"name":"","type":"address","internalType":"address"}],"stateMutability":"view"},{"type":"function","name":"pause","inputs":[],"outputs":[],"stateMutability":"nonpayable"},{"type":"function","name":"paused","inputs":[],"outputs":[{"name":"","type":"bool","internalType":"bool"}],"stateMutability":"view"},{"type":"function","name":"permit","inputs":[{"name":"owner","type":"address","internalType":"address"},{"name":"spender","type":"address","internalType":"address"},{"name":"value","type":"uint256","internalType":"uint256"},{"name":"deadline","type":"uint256","internalType":"uint256"},{"name":"v","type":"uint8","internalType":"uint8"},{"name":"r","type":"bytes32","internalType":"bytes32"},{"name":"s","type":"bytes32","internalType":"bytes32"}],"outputs":[],"stateMutability":"nonpayable"},{"type":"function","name":"price","inputs":[],"outputs":[{"name":"","type":"uint256","internalType":"uint256"}],"stateMutability":"view"},{"type":"function","name":"priceFeed","inputs":[],"outputs":[{"name":"","type":"address","internalType":"contract AggregatorV3Interface"}],"stateMutability":"view"},{"type":"function","name":"proxiableUUID","inputs":[],"outputs":[{"name":"","type":"bytes32","internalType":"bytes32"}],"stateMutability":"view"},{"type":"function","name":"renounceOwnership","inputs":[],"outputs":[],"stateMutability":"nonpayable"},{"type":"function","name":"setMinimalTax","inputs":[{"name":"amount","type":"uint256","internalType":"uint256"}],"outputs":[],"stateMutability":"nonpayable"},{"type":"function","name":"setOldToken","inputs":[{"name":"newToken","type":"address","internalType":"address"}],"outputs":[],"stateMutability":"nonpayable"},{"type":"function","name":"setPriceFeed","inputs":[{"name":"newFeed","type":"address","internalType":"address"}],"outputs":[],"stateMutability":"nonpayable"},{"type":"function","name":"setStakingContract","inputs":[{"name":"newContract","type":"address","internalType":"address"}],"outputs":[],"stateMutability":"nonpayable"},{"type":"function","name":"setTaxFree","inputs":[{"name":"to","type":"address","internalType":"address"},{"name":"state","type":"bool","internalType":"bool"}],"outputs":[],"stateMutability":"nonpayable"},{"type":"function","name":"setTaxPromille","inputs":[{"name":"amount","type":"uint256","internalType":"uint256"}],"outputs":[],"stateMutability":"nonpayable"},{"type":"function","name":"setWallet","inputs":[{"name":"newWallet","type":"address","internalType":"address payable"}],"outputs":[],"stateMutability":"nonpayable"},{"type":"function","name":"stakedAmount","inputs":[{"name":"account","type":"address","internalType":"address"}],"outputs":[{"name":"","type":"uint256","internalType":"uint256"}],"stateMutability":"view"},{"type":"function","name":"stakingContract","inputs":[],"outputs":[{"name":"","type":"address","internalType":"address"}],"stateMutability":"view"},{"type":"function","name":"symbol","inputs":[],"outputs":[{"name":"","type":"string","internalType":"string"}],"stateMutability":"view"},{"type":"function","name":"taxPromille","inputs":[],"outputs":[{"name":"","type":"uint256","internalType":"uint256"}],"stateMutability":"view"},{"type":"function","name":"totalSupply","inputs":[],"outputs":[{"name":"","type":"uint256","internalType":"uint256"}],"stateMutability":"view"},{"type":"function","name":"transfer","inputs":[{"name":"to","type":"address","internalType":"address"},{"name":"value","type":"uint256","internalType":"uint256"}],"outputs":[{"name":"","type":"bool","internalType":"bool"}],"stateMutability":"nonpayable"},{"type":"function","name":"transferFrom","inputs":[{"name":"from","type":"address","internalType":"address"},{"name":"to","type":"address","internalType":"address"},{"name":"value","type":"uint256","internalType":"uint256"}],"outputs":[{"name":"","type":"bool","internalType":"bool"}],"stateMutability":"nonpayable"},{"type":"function","name":"transferOwnership","inputs":[{"name":"newOwner","type":"address","internalType":"address"}],"outputs":[],"stateMutability":"nonpayable"},{"type":"function","name":"transferTo","inputs":[{"name":"to","type":"address","internalType":"address"},{"name":"value","type":"uint256","internalType":"uint256"}],"outputs":[{"name":"","type":"bool","internalType":"bool"}],"stateMutability":"nonpayable"},{"type":"function","name":"transferToken","inputs":[{"name":"token","type":"address","internalType":"address"},{"name":"to","type":"address","internalType":"address"},{"name":"value","type":"uint256","internalType":"uint256"}],"outputs":[{"name":"","type":"bool","internalType":"bool"}],"stateMutability":"nonpayable"},{"type":"function","name":"unpause","inputs":[],"outputs":[],"stateMutability":"nonpayable"},{"type":"function","name":"upgradeToAndCall","inputs":[{"name":"newImplementation","type":"address","internalType":"address"},{"name":"data","type":"bytes","internalType":"bytes"}],"outputs":[],"stateMutability":"payable"},{"type":"function","name":"wallet","inputs":[],"outputs":[{"name":"","type":"address","internalType":"address payable"}],"stateMutability":"view"},{"type":"event","name":"Approval","inputs":[{"name":"owner","type":"address","indexed":true,"internalType":"address"},{"name":"spender","type":"address","indexed":true,"internalType":"address"},{"name":"value","type":"uint256","indexed":false,"internalType":"uint256"}],"anonymous":false},{"type":"event","name":"EIP712DomainChanged","inputs":[],"anonymous":false},{"type":"event","name":"Initialized","inputs":[{"name":"version","type":"uint64","indexed":false,"internalType":"uint64"}],"anonymous":false},{"type":"event","name":"OwnershipTransferred","inputs":[{"name":"previousOwner","type":"address","indexed":true,"internalType":"address"},{"name":"newOwner","type":"address","indexed":true,"internalType":"address"}],"anonymous":false},{"type":"event","name":"Paused","inputs":[{"name":"account","type":"address","indexed":false,"internalType":"address"}],"anonymous":false},{"type":"event","name":"Transfer","inputs":[{"name":"from","type":"address","indexed":true,"internalType":"address"},{"name":"to","type":"address","indexed":true,"internalType":"address"},{"name":"value","type":"uint256","indexed":false,"internalType":"uint256"}],"anonymous":false},{"type":"event","name":"Unpaused","inputs":[{"name":"account","type":"address","indexed":false,"internalType":"address"}],"anonymous":false},{"type":"event","name":"Upgraded","inputs":[{"name":"implementation","type":"address","indexed":true,"internalType":"address"}],"anonymous":false},{"type":"error","name":"AddressEmptyCode","inputs":[{"name":"target","type":"address","internalType":"address"}]},{"type":"error","name":"CannotGetEthPrice","inputs":[]},{"type":"error","name":"ECDSAInvalidSignature","inputs":[]},{"type":"error","name":"ECDSAInvalidSignatureLength","inputs":[{"name":"length","type":"uint256","internalType":"uint256"}]},{"type":"error","name":"ECDSAInvalidSignatureS","inputs":[{"name":"s","type":"bytes32","internalType":"bytes32"}]},{"type":"error","name":"ERC1967InvalidImplementation","inputs":[{"name":"implementation","type":"address","internalType":"address"}]},{"type":"error","name":"ERC1967NonPayable","inputs":[]},{"type":"error","name":"ERC20InsufficientAllowance","inputs":[{"name":"spender","type":"address","internalType":"address"},{"name":"allowance","type":"uint256","internalType":"uint256"},{"name":"needed","type":"uint256","internalType":"uint256"}]},{"type":"error","name":"ERC20InsufficientBalance","inputs":[{"name":"sender","type":"address","internalType":"address"},{"name":"balance","type":"uint256","internalType":"uint256"},{"name":"needed","type":"uint256","internalType":"uint256"}]},{"type":"error","name":"ERC20InvalidApprover","inputs":[{"name":"approver","type":"address","internalType":"address"}]},{"type":"error","name":"ERC20InvalidReceiver","inputs":[{"name":"receiver","type":"address","internalType":"address"}]},{"type":"error","name":"ERC20InvalidSender","inputs":[{"name":"sender","type":"address","internalType":"address"}]},{"type":"error","name":"ERC20InvalidSpender","inputs":[{"name":"spender","type":"address","internalType":"address"}]},{"type":"error","name":"ERC2612ExpiredSignature","inputs":[{"name":"deadline","type":"uint256","internalType":"uint256"}]},{"type":"error","name":"ERC2612InvalidSigner","inputs":[{"name":"signer","type":"address","internalType":"address"},{"name":"owner","type":"address","internalType":"address"}]},{"type":"error","name":"EnforcedPause","inputs":[]},{"type":"error","name":"ExpectedPause","inputs":[]},{"type":"error","name":"FailToSend","inputs":[{"name":"target","type":"address","internalType":"address"},{"name":"amount","type":"uint256","internalType":"uint256"}]},{"type":"error","name":"FailedInnerCall","inputs":[]},{"type":"error","name":"InvalidAccountNonce","inputs":[{"name":"account","type":"address","internalType":"address"},{"name":"currentNonce","type":"uint256","internalType":"uint256"}]},{"type":"error","name":"InvalidInitialization","inputs":[]},{"type":"error","name":"LessThanTax","inputs":[{"name":"account","type":"address","internalType":"address"},{"name":"amount","type":"uint256","internalType":"uint256"},{"name":"tax","type":"uint256","internalType":"uint256"}]},{"type":"error","name":"NotCompleteRound","inputs":[]},{"type":"error","name":"NotInitializing","inputs":[]},{"type":"error","name":"OwnableInvalidOwner","inputs":[{"name":"owner","type":"address","internalType":"address"}]},{"type":"error","name":"OwnableUnauthorizedAccount","inputs":[{"name":"account","type":"address","internalType":"address"}]},{"type":"error","name":"UUPSUnauthorizedCallContext","inputs":[]},{"type":"error","name":"UUPSUnsupportedProxiableUUID","inputs":[{"name":"slot","type":"bytes32","internalType":"bytes32"}]}],"bytecode":{"object":"0x60a060405230608052610010610015565b6100c7565b7ff0c57e16840df040f15088dc2f81fe391c3923bec73e23a9662efc9c229c6a00805468010000000000000000900460ff16156100655760405163f92ee8a960e01b815260040160405180910390fd5b80546001600160401b03908116146100c45780546001600160401b0319166001600160401b0390811782556040519081527fc7f505b2f371ae2175ee4913f4499e1f2633a7b5936321eed1cdaeb6115181d29060200160405180910390a15b50565b6080516129c06100f060003960008181611583015281816115ac01526116ed01526129c06000f3fe6080604052600436106102815760003560e01c80637b0c067b1161014f578063ad3cb1cc116100c1578063deaa59df1161007a578063deaa59df14610799578063ee99205c146107b9578063f2fde38b146107d9578063f5537ede146107f9578063f993185514610819578063fd2187251461083957600080fd5b8063ad3cb1cc146106c8578063b31c710a146106f9578063be20309414610719578063d505accf14610739578063d8ab6ce114610759578063dd62ed3e1461077957600080fd5b80638da5cb5b116101135780638da5cb5b1461062857806395d89b411461063d5780639dc29fac146106525780639dd373b914610672578063a035b1fe14610692578063a9059cbb146106a857600080fd5b80637b0c067b1461059f5780637dea2288146105b55780637ecebe00146105cb5780638456cb59146105eb57806384b0196e1461060057600080fd5b80634f1ef286116101f35780635c975abb116101ac5780635c975abb146104e557806370a082311461050a578063715018a61461052a578063724e78da1461053f578063741bef1a1461055f57806379cc67901461057f57600080fd5b80634f1ef28614610425578063521eb2731461043857806352d1902d146104705780635355655914610485578063561ff35b146104a55780635b7a50f7146104c557600080fd5b80632ccb1b30116102455780632ccb1b301461037f578063313ce5671461039f5780633644e515146103bb5780633f4ba83a146103d057806340c10f19146103e557806342966c681461040557600080fd5b806306fdde03146102a4578063095ea7b3146102cf57806318160ddd146102ff5780631cb25cbc1461033d57806323b872dd1461035f57600080fd5b3661029f5760405163640c472360e11b815260040160405180910390fd5b600080fd5b3480156102b057600080fd5b506102b9610859565b6040516102c69190612319565b60405180910390f35b3480156102db57600080fd5b506102ef6102ea366004612341565b610902565b60405190151581526020016102c6565b34801561030b57600080fd5b507f52c63247e1f47db19d5ce0460030c497f067ca4cebf71ba98eeadabe20bace02545b6040519081526020016102c6565b34801561034957600080fd5b5061035d61035836600461237b565b61091c565b005b34801561036b57600080fd5b506102ef61037a3660046123b4565b61094e565b34801561038b57600080fd5b506102ef61039a366004612341565b610a09565b3480156103ab57600080fd5b50604051601281526020016102c6565b3480156103c757600080fd5b5061032f610a27565b3480156103dc57600080fd5b5061035d610a36565b3480156103f157600080fd5b5061035d610400366004612341565b610a48565b34801561041157600080fd5b5061035d6104203660046123f5565b610a5a565b61035d610433366004612424565b610a67565b34801561044457600080fd5b50600554610458906001600160a01b031681565b6040516001600160a01b0390911681526020016102c6565b34801561047c57600080fd5b5061032f610a82565b34801561049157600080fd5b5061032f6104a03660046123f5565b610a9f565b3480156104b157600080fd5b5061035d6104c03660046123f5565b610aba565b3480156104d157600080fd5b5061035d6104e03660046124e8565b610ac7565b3480156104f157600080fd5b5060008051602061296b8339815191525460ff166102ef565b34801561051657600080fd5b5061032f6105253660046124e8565b610af1565b34801561053657600080fd5b5061035d610b8e565b34801561054b57600080fd5b5061035d61055a3660046124e8565b610ba0565b34801561056b57600080fd5b50600454610458906001600160a01b031681565b34801561058b57600080fd5b5061035d61059a366004612341565b610bca565b3480156105ab57600080fd5b5061032f60025481565b3480156105c157600080fd5b5061032f60015481565b3480156105d757600080fd5b5061032f6105e63660046124e8565b610bdf565b3480156105f757600080fd5b5061035d610bea565b34801561060c57600080fd5b50610615610bfa565b6040516102c69796959493929190612505565b34801561063457600080fd5b50610458610ca6565b34801561064957600080fd5b506102b9610cd4565b34801561065e57600080fd5b5061035d61066d366004612341565b610d13565b34801561067e57600080fd5b5061035d61068d3660046124e8565b610d1b565b34801561069e57600080fd5b5061032f60035481565b3480156106b457600080fd5b506102ef6106c3366004612341565b610d45565b3480156106d457600080fd5b506102b9604051806040016040528060058152602001640352e302e360dc1b81525081565b34801561070557600080fd5b50600854610458906001600160a01b031681565b34801561072557600080fd5b5061035d61073436600461259e565b610d84565b34801561074557600080fd5b5061035d6107543660046125f1565b610f77565b34801561076557600080fd5b506102ef6107743660046124e8565b6110d0565b34801561078557600080fd5b5061032f610794366004612668565b6110dd565b3480156107a557600080fd5b5061035d6107b43660046124e8565b611127565b3480156107c557600080fd5b50600954610458906001600160a01b031681565b3480156107e557600080fd5b5061035d6107f43660046124e8565b611151565b34801561080557600080fd5b506102ef6108143660046123b4565b61118c565b34801561082557600080fd5b5061032f6108343660046124e8565b611209565b34801561084557600080fd5b5061035d6108543660046123f5565b611278565b6060600060008051602061290b8339815191525b905080600301805461087e90612696565b80601f01602080910402602001604051908101604052809291908181526020018280546108aa90612696565b80156108f75780601f106108cc576101008083540402835291602001916108f7565b820191906000526020600020905b8154815290600101906020018083116108da57829003601f168201915b505050505091505090565b600033610910818585611285565b60019150505b92915050565b610924611292565b801561093a576109356006836112c4565b505050565b8061094a576109356006836112d9565b5050565b60006109586112ee565b8161096285610af1565b1015610998578361097285610af1565b8360405163391434e360e21b815260040161098f939291906126d0565b60405180910390fd5b6109a0610ca6565b6001600160a01b031633036109c2576109ba84848461131f565b506001610a02565b6109cd84848461137e565b60015415806109e457506001600160a01b0383163b155b156109f4576109ba84848461131f565b6109ff8484846113d1565b90505b9392505050565b6000610a13611292565b610a1e30848461131f565b50600192915050565b6000610a316114a2565b905090565b610a3e611292565b610a466114ac565b565b610a50611292565b61094a828261150c565b610a643382611542565b50565b610a6f611578565b610a788261161d565b61094a8282611625565b6000610a8c6116e2565b5060008051602061294b83398151915290565b600060405163640c472360e11b815260040160405180910390fd5b610ac2611292565b600255565b610acf611292565b600880546001600160a01b0319166001600160a01b0392909216919091179055565b6009546000906001600160a01b0316610b0d576109168261172b565b60095460405163f993185560e01b81526001600160a01b0384811660048301529091169063f993185590602401602060405180830381865afa158015610b57573d6000803e3d6000fd5b505050506040513d601f19601f82011682018060405250810190610b7b91906126f1565b610b848361172b565b6109169190612720565b610b96611292565b610a46600061175e565b610ba8611292565b600480546001600160a01b0319166001600160a01b0392909216919091179055565b610bd582338361137e565b61094a8282611542565b6000610916826117cf565b610bf2611292565b610a466117f8565b6000606080828080838160008051602061292b8339815191528054909150158015610c2757506001810154155b610c6b5760405162461bcd60e51b81526020600482015260156024820152741152540dcc4c8e88155b9a5b9a5d1a585b1a5e9959605a1b604482015260640161098f565b610c73611841565b610c7b611880565b60408051600080825260208201909252600f60f81b9c939b5091995046985030975095509350915050565b7f9016d09d72d40fdae2fd8ceac6b6234c7706214fd39c1cd1e609a0528c199300546001600160a01b031690565b7f52c63247e1f47db19d5ce0460030c497f067ca4cebf71ba98eeadabe20bace04805460609160008051602061290b8339815191529161087e90612696565b610bd5611292565b610d23611292565b600980546001600160a01b0319166001600160a01b0392909216919091179055565b6000610d4f6112ee565b610d57610ca6565b6001600160a01b03163303610d7957610d7133848461131f565b506001610916565b610a023384846113d1565b7ff0c57e16840df040f15088dc2f81fe391c3923bec73e23a9662efc9c229c6a008054600160401b810460ff16159067ffffffffffffffff16600081158015610dca5750825b905060008267ffffffffffffffff166001148015610de75750303b155b905081158015610df5575080155b15610e135760405163f92ee8a960e01b815260040160405180910390fd5b845467ffffffffffffffff191660011785558315610e3d57845460ff60401b1916600160401b1785555b60005460ff16610f2657610e5089611898565b6000805460ff19166001179055610e656118a9565b610eb16040518060400160405280600e81526020016d2232a834b71020a4902a37b5b2b760911b815250604051806040016040528060048152602001634450414960e01b8152506118b1565b610eb96118c3565b610ec16118a9565b610ef06040518060400160405280600e81526020016d2232a834b71020a4902a37b5b2b760911b8152506118d3565b600480546001600160a01b03808b166001600160a01b031992831617909255600389905560058054928916929091169190911790555b8315610f6c57845460ff60401b19168555604051600181527fc7f505b2f371ae2175ee4913f4499e1f2633a7b5936321eed1cdaeb6115181d29060200160405180910390a15b505050505050505050565b83421115610f9b5760405163313c898160e11b81526004810185905260240161098f565b60007f6e71edae12b1b97f4d1f60370fef10105fa2faae0126114a169c64845d6126c98888886110078c6001600160a01b031660009081527f5ab42ced628888259c08ac98db1eb0cf702fc1501344311d8b100cd1bfe4bb006020526040902080546001810190915590565b6040805160208101969096526001600160a01b0394851690860152929091166060840152608083015260a082015260c0810186905260e0016040516020818303038152906040528051906020012090506000611062826118fe565b905060006110728287878761192b565b9050896001600160a01b0316816001600160a01b0316146110b9576040516325c0072360e11b81526001600160a01b0380831660048301528b16602482015260440161098f565b6110c48a8a8a611285565b50505050505050505050565b6000610916600683611959565b6001600160a01b0391821660009081527f52c63247e1f47db19d5ce0460030c497f067ca4cebf71ba98eeadabe20bace016020908152604080832093909416825291909152205490565b61112f611292565b600580546001600160a01b0319166001600160a01b0392909216919091179055565b611159611292565b6001600160a01b03811661118357604051631e4fbdf760e01b81526000600482015260240161098f565b610a648161175e565b6000611196611292565b60405163a9059cbb60e01b81526001600160a01b0384811660048301526024820184905285169063a9059cbb906044016020604051808303816000875af11580156111e5573d6000803e3d6000fd5b505050506040513d601f19601f820116820180604052508101906109ff9190612733565b60095460405163f993185560e01b81526001600160a01b038381166004830152600092169063f993185590602401602060405180830381865afa158015611254573d6000803e3d6000fd5b505050506040513d601f19601f8201168201806040525081019061091691906126f1565b611280611292565b600155565b610935838383600161197b565b3361129b610ca6565b6001600160a01b031614610a465760405163118cdaa760e01b815233600482015260240161098f565b6000610a02836001600160a01b038416611a63565b6000610a02836001600160a01b038416611ab2565b60008051602061296b8339815191525460ff1615610a465760405163d93c066560e01b815260040160405180910390fd5b6001600160a01b03831661134957604051634b637e8f60e11b81526000600482015260240161098f565b6001600160a01b0382166113735760405163ec442f0560e01b81526000600482015260240161098f565b610935838383611ba5565b600061138a84846110dd565b905060001981146113cb57818110156113bc57828183604051637dc7a0d960e11b815260040161098f939291906126d0565b6113cb8484848403600061197b565b50505050565b600081600254106113fd578382600254604051630333f81760e61b815260040161098f939291906126d0565b60006103e8600154846114109190612750565b61141a9190612767565b905060025481101561142b57506002545b8015611483578261143b86610af1565b1015611471578461144b86610af1565b6114558386612789565b60405163391434e360e21b815260040161098f939291906126d0565b6114838561147d610ca6565b8361131f565b61149785856114928487612720565b61131f565b506001949350505050565b6000610a31611bb8565b6114b4611c2c565b60008051602061296b833981519152805460ff191681557f5db9ee0a495bf2e6ff9c91a7834c1ba4fdd244a5e8aa4e537bd38aeae4b073aa335b6040516001600160a01b03909116815260200160405180910390a150565b6001600160a01b0382166115365760405163ec442f0560e01b81526000600482015260240161098f565b61094a60008383611ba5565b6001600160a01b03821661156c57604051634b637e8f60e11b81526000600482015260240161098f565b61094a82600083611ba5565b306001600160a01b037f00000000000000000000000000000000000000000000000000000000000000001614806115ff57507f00000000000000000000000000000000000000000000000000000000000000006001600160a01b03166115f360008051602061294b833981519152546001600160a01b031690565b6001600160a01b031614155b15610a465760405163703e46dd60e11b815260040160405180910390fd5b610a64611292565b816001600160a01b03166352d1902d6040518163ffffffff1660e01b8152600401602060405180830381865afa92505050801561167f575060408051601f3d908101601f1916820190925261167c918101906126f1565b60015b6116a757604051634c9c8ce360e01b81526001600160a01b038316600482015260240161098f565b60008051602061294b83398151915281146116d857604051632a87526960e21b81526004810182905260240161098f565b6109358383611c5c565b306001600160a01b037f00000000000000000000000000000000000000000000000000000000000000001614610a465760405163703e46dd60e11b815260040160405180910390fd5b60008060008051602061290b8339815191525b6001600160a01b0390931660009081526020939093525050604090205490565b7f9016d09d72d40fdae2fd8ceac6b6234c7706214fd39c1cd1e609a0528c19930080546001600160a01b031981166001600160a01b03848116918217845560405192169182907f8be0079c531659141344cd1fd0a4f28419497f9722a3daafe3b4186f6b6457e090600090a3505050565b6000807f5ab42ced628888259c08ac98db1eb0cf702fc1501344311d8b100cd1bfe4bb0061173e565b6118006112ee565b60008051602061296b833981519152805460ff191660011781557f62e78cea01bee320cd4e420270b5ea74000d11b0c9f74754ebdbfc544b05a258336114ee565b7fa16a46d94261c7517cc8ff89f61c0ce93598e3c849801011dee649a6a557d102805460609160008051602061292b8339815191529161087e90612696565b6060600060008051602061292b83398151915261086d565b6118a0611cb2565b610a6481611cfb565b610a46611cb2565b6118b9611cb2565b61094a8282611d03565b6118cb611cb2565b610a46611d54565b6118db611cb2565b610a6481604051806040016040528060018152602001603160f81b815250611d75565b600061091661190b6114a2565b8360405161190160f01b8152600281019290925260228201526042902090565b60008060008061193d88888888611dd6565b92509250925061194d8282611ea5565b50909695505050505050565b6001600160a01b03811660009081526001830160205260408120541515610a02565b60008051602061290b8339815191526001600160a01b0385166119b45760405163e602df0560e01b81526000600482015260240161098f565b6001600160a01b0384166119de57604051634a1406b160e11b81526000600482015260240161098f565b6001600160a01b03808616600090815260018301602090815260408083209388168352929052208390558115611a5c57836001600160a01b0316856001600160a01b03167f8c5be1e5ebec7d5bd14f71427d1e84f3dd0314c0f7b2291e5b200ac8c7c3b92585604051611a5391815260200190565b60405180910390a35b5050505050565b6000818152600183016020526040812054611aaa57508154600181810184556000848152602080822090930184905584548482528286019093526040902091909155610916565b506000610916565b60008181526001830160205260408120548015611b9b576000611ad6600183612720565b8554909150600090611aea90600190612720565b9050808214611b4f576000866000018281548110611b0a57611b0a61279c565b9060005260206000200154905080876000018481548110611b2d57611b2d61279c565b6000918252602080832090910192909255918252600188019052604090208390555b8554869080611b6057611b606127b2565b600190038181906000526020600020016000905590558560010160008681526020019081526020016000206000905560019350505050610916565b6000915050610916565b611bad6112ee565b610935838383611f5e565b60007f8b73c3c69bb8fe3d512ecc4cf759cc79239f7b179b0ffacaa9a75d522b39400f611be3611f71565b611beb611fdb565b60408051602081019490945283019190915260608201524660808201523060a082015260c00160405160208183030381529060405280519060200120905090565b60008051602061296b8339815191525460ff16610a4657604051638dfc202b60e01b815260040160405180910390fd5b611c658261201f565b6040516001600160a01b038316907fbc7cd75a20ee27fd9adebab32041f755214dbc6bffa90cc0225b39da2e5c2d3b90600090a2805115611caa576109358282612084565b61094a6120fa565b7ff0c57e16840df040f15088dc2f81fe391c3923bec73e23a9662efc9c229c6a0054600160401b900460ff16610a4657604051631afcd79f60e31b815260040160405180910390fd5b611159611cb2565b611d0b611cb2565b60008051602061290b8339815191527f52c63247e1f47db19d5ce0460030c497f067ca4cebf71ba98eeadabe20bace03611d458482612818565b50600481016113cb8382612818565b611d5c611cb2565b60008051602061296b833981519152805460ff19169055565b611d7d611cb2565b60008051602061292b8339815191527fa16a46d94261c7517cc8ff89f61c0ce93598e3c849801011dee649a6a557d102611db78482612818565b5060038101611dc68382612818565b5060008082556001909101555050565b600080807f7fffffffffffffffffffffffffffffff5d576e7357a4501ddfe92f46681b20a0841115611e115750600091506003905082611e9b565b604080516000808252602082018084528a905260ff891692820192909252606081018790526080810186905260019060a0016020604051602081039080840390855afa158015611e65573d6000803e3d6000fd5b5050604051601f1901519150506001600160a01b038116611e9157506000925060019150829050611e9b565b9250600091508190505b9450945094915050565b6000826003811115611eb957611eb96128d8565b03611ec2575050565b6001826003811115611ed657611ed66128d8565b03611ef45760405163f645eedf60e01b815260040160405180910390fd5b6002826003811115611f0857611f086128d8565b03611f295760405163fce698f760e01b81526004810182905260240161098f565b6003826003811115611f3d57611f3d6128d8565b0361094a576040516335e2f38360e21b81526004810182905260240161098f565b611f666112ee565b610935838383612119565b600060008051602061292b83398151915281611f8b611841565b805190915015611fa357805160209091012092915050565b81548015611fb2579392505050565b7fc5d2460186f7233c927e7db2dcc703c0e500b653ca82273b7bfad8045d85a470935050505090565b600060008051602061292b83398151915281611ff5611880565b80519091501561200d57805160209091012092915050565b60018201548015611fb2579392505050565b806001600160a01b03163b60000361205557604051634c9c8ce360e01b81526001600160a01b038216600482015260240161098f565b60008051602061294b83398151915280546001600160a01b0319166001600160a01b0392909216919091179055565b6060600080846001600160a01b0316846040516120a191906128ee565b600060405180830381855af49150503d80600081146120dc576040519150601f19603f3d011682016040523d82523d6000602084013e6120e1565b606091505b50915091506120f1858383612244565b95945050505050565b3415610a465760405163b398979f60e01b815260040160405180910390fd5b60008051602061290b8339815191526001600160a01b038416612155578181600201600082825461214a9190612789565b909155506121b49050565b6001600160a01b038416600090815260208290526040902054828110156121955784818460405163391434e360e21b815260040161098f939291906126d0565b6001600160a01b03851660009081526020839052604090209083900390555b6001600160a01b0383166121d25760028101805483900390556121f1565b6001600160a01b03831660009081526020829052604090208054830190555b826001600160a01b0316846001600160a01b03167fddf252ad1be2c89b69c2b068fc378daa952ba7f163c4a11628f55a4df523b3ef8460405161223691815260200190565b60405180910390a350505050565b60608261225957612254826122a0565b610a02565b815115801561227057506001600160a01b0384163b155b1561229957604051639996b31560e01b81526001600160a01b038516600482015260240161098f565b5080610a02565b8051156122b05780518082602001fd5b604051630a12f52160e11b815260040160405180910390fd5b60005b838110156122e45781810151838201526020016122cc565b50506000910152565b600081518084526123058160208601602086016122c9565b601f01601f19169290920160200192915050565b602081526000610a0260208301846122ed565b6001600160a01b0381168114610a6457600080fd5b6000806040838503121561235457600080fd5b823561235f8161232c565b946020939093013593505050565b8015158114610a6457600080fd5b6000806040838503121561238e57600080fd5b82356123998161232c565b915060208301356123a98161236d565b809150509250929050565b6000806000606084860312156123c957600080fd5b83356123d48161232c565b925060208401356123e48161232c565b929592945050506040919091013590565b60006020828403121561240757600080fd5b5035919050565b634e487b7160e01b600052604160045260246000fd5b6000806040838503121561243757600080fd5b82356124428161232c565b9150602083013567ffffffffffffffff8082111561245f57600080fd5b818501915085601f83011261247357600080fd5b8135818111156124855761248561240e565b604051601f8201601f19908116603f011681019083821181831017156124ad576124ad61240e565b816040528281528860208487010111156124c657600080fd5b8260208601602083013760006020848301015280955050505050509250929050565b6000602082840312156124fa57600080fd5b8135610a028161232c565b60ff60f81b881681526000602060e0602084015261252660e084018a6122ed565b8381036040850152612538818a6122ed565b606085018990526001600160a01b038816608086015260a0850187905284810360c08601528551808252602080880193509091019060005b8181101561258c57835183529284019291840191600101612570565b50909c9b505050505050505050505050565b600080600080608085870312156125b457600080fd5b84356125bf8161232c565b935060208501356125cf8161232c565b92506040850135915060608501356125e68161232c565b939692955090935050565b600080600080600080600060e0888a03121561260c57600080fd5b87356126178161232c565b965060208801356126278161232c565b95506040880135945060608801359350608088013560ff8116811461264b57600080fd5b9699959850939692959460a0840135945060c09093013592915050565b6000806040838503121561267b57600080fd5b82356126868161232c565b915060208301356123a98161232c565b600181811c908216806126aa57607f821691505b6020821081036126ca57634e487b7160e01b600052602260045260246000fd5b50919050565b6001600160a01b039390931683526020830191909152604082015260600190565b60006020828403121561270357600080fd5b5051919050565b634e487b7160e01b600052601160045260246000fd5b818103818111156109165761091661270a565b60006020828403121561274557600080fd5b8151610a028161236d565b80820281158282048414176109165761091661270a565b60008261278457634e487b7160e01b600052601260045260246000fd5b500490565b808201808211156109165761091661270a565b634e487b7160e01b600052603260045260246000fd5b634e487b7160e01b600052603160045260246000fd5b601f821115610935576000816000526020600020601f850160051c810160208610156127f15750805b601f850160051c820191505b81811015612810578281556001016127fd565b505050505050565b815167ffffffffffffffff8111156128325761283261240e565b612846816128408454612696565b846127c8565b602080601f83116001811461287b57600084156128635750858301515b600019600386901b1c1916600185901b178555612810565b600085815260208120601f198616915b828110156128aa5788860151825594840194600190910190840161288b565b50858210156128c85787850151600019600388901b60f8161c191681555b5050505050600190811b01905550565b634e487b7160e01b600052602160045260246000fd5b600082516129008184602087016122c9565b919091019291505056fe52c63247e1f47db19d5ce0460030c497f067ca4cebf71ba98eeadabe20bace00a16a46d94261c7517cc8ff89f61c0ce93598e3c849801011dee649a6a557d100360894a13ba1a3210667c828492db98dca3e2076cc3735a920a3ca505d382bbccd5ed15c6e187e77e9aee88184c21f4f2182ab5827cb3b7e07fbedcd63f03300a26469706673582212202c8b4a9825266fd660df044ce5f0cf2eb6c074a057f24f919f5f2c6f22b867e264736f6c63430008190033","linkReferences":{}},"methodIdentifiers":{"DOMAIN_SEPARATOR()":"3644e515","UPGRADE_INTERFACE_VERSION()":"ad3cb1cc","allowance(address,address)":"dd62ed3e","approve(address,uint256)":"095ea7b3","balanceOf(address)":"70a08231","burn(address,uint256)":"9dc29fac","burn(uint256)":"42966c68","burnFrom(address,uint256)":"79cc6790","decimals()":"313ce567","eip712Domain()":"84b0196e","exchange(uint256)":"53556559","initialize(address,address,uint256,address)":"be203094","isTaxFree(address)":"d8ab6ce1","minimalTax()":"7b0c067b","mint(address,uint256)":"40c10f19","name()":"06fdde03","nonces(address)":"7ecebe00","oldToken()":"b31c710a","owner()":"8da5cb5b","pause()":"8456cb59","paused()":"5c975abb","permit(address,address,uint256,uint256,uint8,bytes32,bytes32)":"d505accf","price()":"a035b1fe","priceFeed()":"741bef1a","proxiableUUID()":"52d1902d","renounceOwnership()":"715018a6","setMinimalTax(uint256)":"561ff35b","setOldToken(address)":"5b7a50f7","setPriceFeed(address)":"724e78da","setStakingContract(address)":"9dd373b9","setTaxFree(address,bool)":"1cb25cbc","setTaxPromille(uint256)":"fd218725","setWallet(address)":"deaa59df","stakedAmount(address)":"f9931855","stakingContract()":"ee99205c","symbol()":"95d89b41","taxPromille()":"7dea2288","totalSupply()":"18160ddd","transfer(address,uint256)":"a9059cbb","transferFrom(address,address,uint256)":"23b872dd","transferOwnership(address)":"f2fde38b","transferTo(address,uint256)":"2ccb1b30","transferToken(address,address,uint256)":"f5537ede","unpause()":"3f4ba83a","upgradeToAndCall(address,bytes)":"4f1ef286","wallet()":"521eb273"},"id":1}