{"abi":[{"type":"constructor","inputs":[],"stateMutability":"payable"},{"type":"receive","stateMutability":"payable"},{"type":"function","name":"DOMAIN_SEPARATOR","inputs":[],"outputs":[{"name":"","type":"bytes32","internalType":"bytes32"}],"stateMutability":"view"},{"type":"function","name":"UPGRADE_INTERFACE_VERSION","inputs":[],"outputs":[{"name":"","type":"string","internalType":"string"}],"stateMutability":"view"},{"type":"function","name":"allowance","inputs":[{"name":"owner","type":"address","internalType":"address"},{"name":"spender","type":"address","internalType":"address"}],"outputs":[{"name":"","type":"uint256","internalType":"uint256"}],"stateMutability":"view"},{"type":"function","name":"approve","inputs":[{"name":"spender","type":"address","internalType":"address"},{"name":"value","type":"uint256","internalType":"uint256"}],"outputs":[{"name":"","type":"bool","internalType":"bool"}],"stateMutability":"nonpayable"},{"type":"function","name":"balanceOf","inputs":[{"name":"account","type":"address","internalType":"address"}],"outputs":[{"name":"","type":"uint256","internalType":"uint256"}],"stateMutability":"view"},{"type":"function","name":"burn","inputs":[{"name":"value","type":"uint256","internalType":"uint256"}],"outputs":[],"stateMutability":"nonpayable"},{"type":"function","name":"burn","inputs":[{"name":"to","type":"address","internalType":"address"},{"name":"value","type":"uint256","internalType":"uint256"}],"outputs":[],"stateMutability":"nonpayable"},{"type":"function","name":"burnFrom","inputs":[{"name":"account","type":"address","internalType":"address"},{"name":"value","type":"uint256","internalType":"uint256"}],"outputs":[],"stateMutability":"nonpayable"},{"type":"function","name":"decimals","inputs":[],"outputs":[{"name":"","type":"uint8","internalType":"uint8"}],"stateMutability":"view"},{"type":"function","name":"eip712Domain","inputs":[],"outputs":[{"name":"fields","type":"bytes1","internalType":"bytes1"},{"name":"name","type":"string","internalType":"string"},{"name":"version","type":"string","internalType":"string"},{"name":"chainId","type":"uint256","internalType":"uint256"},{"name":"verifyingContract","type":"address","internalType":"address"},{"name":"salt","type":"bytes32","internalType":"bytes32"},{"name":"extensions","type":"uint256[]","internalType":"uint256[]"}],"stateMutability":"view"},{"type":"function","name":"getEthPrice","inputs":[],"outputs":[{"name":"","type":"uint256","internalType":"uint256"}],"stateMutability":"view"},{"type":"function","name":"initialize","inputs":[{"name":"owner_","type":"address","internalType":"address"},{"name":"priceFeed_","type":"address","internalType":"address"},{"name":"price_","type":"uint256","internalType":"uint256"},{"name":"wallet_","type":"address","internalType":"address payable"}],"outputs":[],"stateMutability":"nonpayable"},{"type":"function","name":"minimalTax","inputs":[],"outputs":[{"name":"","type":"uint256","internalType":"uint256"}],"stateMutability":"view"},{"type":"function","name":"mint","inputs":[{"name":"to","type":"address","internalType":"address"},{"name":"amount","type":"uint256","internalType":"uint256"}],"outputs":[],"stateMutability":"nonpayable"},{"type":"function","name":"name","inputs":[],"outputs":[{"name":"","type":"string","internalType":"string"}],"stateMutability":"view"},{"type":"function","name":"nonces","inputs":[{"name":"owner","type":"address","internalType":"address"}],"outputs":[{"name":"","type":"uint256","internalType":"uint256"}],"stateMutability":"view"},{"type":"function","name":"owner","inputs":[],"outputs":[{"name":"","type":"address","internalType":"address"}],"stateMutability":"view"},{"type":"function","name":"pause","inputs":[],"outputs":[],"stateMutability":"nonpayable"},{"type":"function","name":"paused","inputs":[],"outputs":[{"name":"","type":"bool","internalType":"bool"}],"stateMutability":"view"},{"type":"function","name":"permit","inputs":[{"name":"owner","type":"address","internalType":"address"},{"name":"spender","type":"address","internalType":"address"},{"name":"value","type":"uint256","internalType":"uint256"},{"name":"deadline","type":"uint256","internalType":"uint256"},{"name":"v","type":"uint8","internalType":"uint8"},{"name":"r","type":"bytes32","internalType":"bytes32"},{"name":"s","type":"bytes32","internalType":"bytes32"}],"outputs":[],"stateMutability":"nonpayable"},{"type":"function","name":"price","inputs":[],"outputs":[{"name":"","type":"uint256","internalType":"uint256"}],"stateMutability":"view"},{"type":"function","name":"proxiableUUID","inputs":[],"outputs":[{"name":"","type":"bytes32","internalType":"bytes32"}],"stateMutability":"view"},{"type":"function","name":"renounceOwnership","inputs":[],"outputs":[],"stateMutability":"nonpayable"},{"type":"function","name":"setMinimalTax","inputs":[{"name":"amount","type":"uint256","internalType":"uint256"}],"outputs":[],"stateMutability":"nonpayable"},{"type":"function","name":"setPriceFeed","inputs":[{"name":"newFeed","type":"address","internalType":"address"}],"outputs":[],"stateMutability":"nonpayable"},{"type":"function","name":"setTaxPromille","inputs":[{"name":"amount","type":"uint256","internalType":"uint256"}],"outputs":[],"stateMutability":"nonpayable"},{"type":"function","name":"setWallet","inputs":[{"name":"newWallet","type":"address","internalType":"address payable"}],"outputs":[],"stateMutability":"nonpayable"},{"type":"function","name":"symbol","inputs":[],"outputs":[{"name":"","type":"string","internalType":"string"}],"stateMutability":"view"},{"type":"function","name":"taxPromille","inputs":[],"outputs":[{"name":"","type":"uint256","internalType":"uint256"}],"stateMutability":"view"},{"type":"function","name":"totalSupply","inputs":[],"outputs":[{"name":"","type":"uint256","internalType":"uint256"}],"stateMutability":"view"},{"type":"function","name":"transfer","inputs":[{"name":"to","type":"address","internalType":"address"},{"name":"value","type":"uint256","internalType":"uint256"}],"outputs":[{"name":"","type":"bool","internalType":"bool"}],"stateMutability":"nonpayable"},{"type":"function","name":"transferFrom","inputs":[{"name":"from","type":"address","internalType":"address"},{"name":"to","type":"address","internalType":"address"},{"name":"value","type":"uint256","internalType":"uint256"}],"outputs":[{"name":"","type":"bool","internalType":"bool"}],"stateMutability":"nonpayable"},{"type":"function","name":"transferOwnership","inputs":[{"name":"newOwner","type":"address","internalType":"address"}],"outputs":[],"stateMutability":"nonpayable"},{"type":"function","name":"transferTo","inputs":[{"name":"to","type":"address","internalType":"address"},{"name":"value","type":"uint256","internalType":"uint256"}],"outputs":[{"name":"","type":"bool","internalType":"bool"}],"stateMutability":"nonpayable"},{"type":"function","name":"transferToken","inputs":[{"name":"token","type":"address","internalType":"address"},{"name":"to","type":"address","internalType":"address"},{"name":"value","type":"uint256","internalType":"uint256"}],"outputs":[{"name":"","type":"bool","internalType":"bool"}],"stateMutability":"nonpayable"},{"type":"function","name":"unpause","inputs":[],"outputs":[],"stateMutability":"nonpayable"},{"type":"function","name":"upgradeToAndCall","inputs":[{"name":"newImplementation","type":"address","internalType":"address"},{"name":"data","type":"bytes","internalType":"bytes"}],"outputs":[],"stateMutability":"payable"},{"type":"function","name":"wallet","inputs":[],"outputs":[{"name":"","type":"address","internalType":"address payable"}],"stateMutability":"view"},{"type":"event","name":"Approval","inputs":[{"name":"owner","type":"address","indexed":true,"internalType":"address"},{"name":"spender","type":"address","indexed":true,"internalType":"address"},{"name":"value","type":"uint256","indexed":false,"internalType":"uint256"}],"anonymous":false},{"type":"event","name":"EIP712DomainChanged","inputs":[],"anonymous":false},{"type":"event","name":"Initialized","inputs":[{"name":"version","type":"uint64","indexed":false,"internalType":"uint64"}],"anonymous":false},{"type":"event","name":"OwnershipTransferred","inputs":[{"name":"previousOwner","type":"address","indexed":true,"internalType":"address"},{"name":"newOwner","type":"address","indexed":true,"internalType":"address"}],"anonymous":false},{"type":"event","name":"Paused","inputs":[{"name":"account","type":"address","indexed":false,"internalType":"address"}],"anonymous":false},{"type":"event","name":"Transfer","inputs":[{"name":"from","type":"address","indexed":true,"internalType":"address"},{"name":"to","type":"address","indexed":true,"internalType":"address"},{"name":"value","type":"uint256","indexed":false,"internalType":"uint256"}],"anonymous":false},{"type":"event","name":"Unpaused","inputs":[{"name":"account","type":"address","indexed":false,"internalType":"address"}],"anonymous":false},{"type":"event","name":"Upgraded","inputs":[{"name":"implementation","type":"address","indexed":true,"internalType":"address"}],"anonymous":false},{"type":"error","name":"AddressEmptyCode","inputs":[{"name":"target","type":"address","internalType":"address"}]},{"type":"error","name":"ECDSAInvalidSignature","inputs":[]},{"type":"error","name":"ECDSAInvalidSignatureLength","inputs":[{"name":"length","type":"uint256","internalType":"uint256"}]},{"type":"error","name":"ECDSAInvalidSignatureS","inputs":[{"name":"s","type":"bytes32","internalType":"bytes32"}]},{"type":"error","name":"ERC1967InvalidImplementation","inputs":[{"name":"implementation","type":"address","internalType":"address"}]},{"type":"error","name":"ERC1967NonPayable","inputs":[]},{"type":"error","name":"ERC20InsufficientAllowance","inputs":[{"name":"spender","type":"address","internalType":"address"},{"name":"allowance","type":"uint256","internalType":"uint256"},{"name":"needed","type":"uint256","internalType":"uint256"}]},{"type":"error","name":"ERC20InsufficientBalance","inputs":[{"name":"sender","type":"address","internalType":"address"},{"name":"balance","type":"uint256","internalType":"uint256"},{"name":"needed","type":"uint256","internalType":"uint256"}]},{"type":"error","name":"ERC20InvalidApprover","inputs":[{"name":"approver","type":"address","internalType":"address"}]},{"type":"error","name":"ERC20InvalidReceiver","inputs":[{"name":"receiver","type":"address","internalType":"address"}]},{"type":"error","name":"ERC20InvalidSender","inputs":[{"name":"sender","type":"address","internalType":"address"}]},{"type":"error","name":"ERC20InvalidSpender","inputs":[{"name":"spender","type":"address","internalType":"address"}]},{"type":"error","name":"ERC2612ExpiredSignature","inputs":[{"name":"deadline","type":"uint256","internalType":"uint256"}]},{"type":"error","name":"ERC2612InvalidSigner","inputs":[{"name":"signer","type":"address","internalType":"address"},{"name":"owner","type":"address","internalType":"address"}]},{"type":"error","name":"EnforcedPause","inputs":[]},{"type":"error","name":"ExpectedPause","inputs":[]},{"type":"error","name":"FailedInnerCall","inputs":[]},{"type":"error","name":"InvalidAccountNonce","inputs":[{"name":"account","type":"address","internalType":"address"},{"name":"currentNonce","type":"uint256","internalType":"uint256"}]},{"type":"error","name":"InvalidInitialization","inputs":[]},{"type":"error","name":"LessThanTax","inputs":[{"name":"account","type":"address","internalType":"address"},{"name":"amount","type":"uint256","internalType":"uint256"},{"name":"tax","type":"uint256","internalType":"uint256"}]},{"type":"error","name":"NotCompleteRound","inputs":[]},{"type":"error","name":"NotInitializing","inputs":[]},{"type":"error","name":"OwnableInvalidOwner","inputs":[{"name":"owner","type":"address","internalType":"address"}]},{"type":"error","name":"OwnableUnauthorizedAccount","inputs":[{"name":"account","type":"address","internalType":"address"}]},{"type":"error","name":"UUPSUnauthorizedCallContext","inputs":[]},{"type":"error","name":"UUPSUnsupportedProxiableUUID","inputs":[{"name":"slot","type":"bytes32","internalType":"bytes32"}]}],"bytecode":{"object":"0x60a060405230608052610010610015565b6100c7565b7ff0c57e16840df040f15088dc2f81fe391c3923bec73e23a9662efc9c229c6a00805468010000000000000000900460ff16156100655760405163f92ee8a960e01b815260040160405180910390fd5b80546001600160401b03908116146100c45780546001600160401b0319166001600160401b0390811782556040519081527fc7f505b2f371ae2175ee4913f4499e1f2633a7b5936321eed1cdaeb6115181d29060200160405180910390a15b50565b6080516128376100f0600039600081816114500152818161147901526115ba01526128376000f3fe6080604052600436106102295760003560e01c806379cc679011610123578063a035b1fe116100ab578063dd62ed3e1161006f578063dd62ed3e14610724578063deaa59df14610744578063f2fde38b14610764578063f5537ede14610784578063fd218725146107a457600080fd5b8063a035b1fe1461067d578063a9059cbb14610693578063ad3cb1cc146106b3578063be203094146106e4578063d505accf1461070457600080fd5b80638456cb59116100f25780638456cb59146105f657806384b0196e1461060b5780638da5cb5b1461063357806395d89b41146106485780639dc29fac1461065d57600080fd5b806379cc67901461058a5780637b0c067b146105aa5780637dea2288146105c05780637ecebe00146105d657600080fd5b806342966c68116101b15780635c975abb116101755780635c975abb146104fb57806367c9b0171461052057806370a0823114610535578063715018a614610555578063724e78da1461056a57600080fd5b806342966c681461045b5780634f1ef2861461047b578063521eb2731461048e57806352d1902d146104c6578063561ff35b146104db57600080fd5b80632ccb1b30116101f85780632ccb1b30146103d5578063313ce567146103f55780633644e515146104115780633f4ba83a1461042657806340c10f191461043b57600080fd5b806306fdde031461031c578063095ea7b31461034757806318160ddd1461037757806323b872dd146103b557600080fd5b3661031757600480546040805163313ce56760e01b81529051600093600a936001600160a01b03169263313ce56792818301926020928290030181865afa158015610278573d6000803e3d6000fd5b505050506040513d601f19601f8201168201806040525081019061029c919061200e565b6102a7906012612041565b6102b1919061215f565b60ff166102bc6107c4565b6102c69190612171565b90506102dc30336102d78434612188565b610900565b6005546040516001600160a01b03909116903480156108fc02916000818181858888f19350505050158015610315573d6000803e3d6000fd5b005b600080fd5b34801561032857600080fd5b50610331610969565b60405161033e91906121fa565b60405180910390f35b34801561035357600080fd5b50610367610362366004612222565b610a12565b604051901515815260200161033e565b34801561038357600080fd5b507f52c63247e1f47db19d5ce0460030c497f067ca4cebf71ba98eeadabe20bace02545b60405190815260200161033e565b3480156103c157600080fd5b506103676103d036600461224e565b610a2c565b3480156103e157600080fd5b506103676103f0366004612222565b610a80565b34801561040157600080fd5b506040516012815260200161033e565b34801561041d57600080fd5b506103a7610a9e565b34801561043257600080fd5b50610315610aad565b34801561044757600080fd5b50610315610456366004612222565b610abf565b34801561046757600080fd5b5061031561047636600461228f565b610ad5565b6103156104893660046122be565b610ae2565b34801561049a57600080fd5b506005546104ae906001600160a01b031681565b6040516001600160a01b03909116815260200161033e565b3480156104d257600080fd5b506103a7610afd565b3480156104e757600080fd5b506103156104f636600461228f565b610b1a565b34801561050757600080fd5b506000805160206127e28339815191525460ff16610367565b34801561052c57600080fd5b506103a76107c4565b34801561054157600080fd5b506103a7610550366004612382565b610b27565b34801561056157600080fd5b50610315610b5a565b34801561057657600080fd5b50610315610585366004612382565b610b6c565b34801561059657600080fd5b506103156105a5366004612222565b610b96565b3480156105b657600080fd5b506103a760025481565b3480156105cc57600080fd5b506103a760015481565b3480156105e257600080fd5b506103a76105f1366004612382565b610bab565b34801561060257600080fd5b50610315610bb6565b34801561061757600080fd5b50610620610bc6565b60405161033e979695949392919061239f565b34801561063f57600080fd5b506104ae610c72565b34801561065457600080fd5b50610331610ca0565b34801561066957600080fd5b50610315610678366004612222565b610cdf565b34801561068957600080fd5b506103a760035481565b34801561069f57600080fd5b506103676106ae366004612222565b610ce7565b3480156106bf57600080fd5b50610331604051806040016040528060058152602001640352e302e360dc1b81525081565b3480156106f057600080fd5b506103156106ff366004612438565b610d26565b34801561071057600080fd5b5061031561071f36600461248b565b610f23565b34801561073057600080fd5b506103a761073f3660046124fc565b61107c565b34801561075057600080fd5b5061031561075f366004612382565b6110c6565b34801561077057600080fd5b5061031561077f366004612382565b6110f0565b34801561079057600080fd5b5061036761079f36600461224e565b61112b565b3480156107b057600080fd5b506103156107bf36600461228f565b6111a8565b600080600080600080600460009054906101000a90046001600160a01b03166001600160a01b031663feaf968c6040518163ffffffff1660e01b815260040160a060405180830381865afa158015610820573d6000803e3d6000fd5b505050506040513d601f19601f820116820180604052508101906108449190612554565b94509450945094509450600354600a600460009054906101000a90046001600160a01b03166001600160a01b031663313ce5676040518163ffffffff1660e01b8152600401602060405180830381865afa1580156108a6573d6000803e3d6000fd5b505050506040513d601f19601f820116820180604052508101906108ca919061200e565b6108d5906012612041565b6108df919061215f565b6108ec9060ff1686612171565b6108f69190612188565b9550505050505090565b6001600160a01b03831661092f57604051634b637e8f60e11b8152600060048201526024015b60405180910390fd5b6001600160a01b0382166109595760405163ec442f0560e01b815260006004820152602401610926565b6109648383836111b5565b505050565b606060006000805160206127828339815191525b905080600301805461098e906125a4565b80601f01602080910402602001604051908101604052809291908181526020018280546109ba906125a4565b8015610a075780601f106109dc57610100808354040283529160200191610a07565b820191906000526020600020905b8154815290600101906020018083116109ea57829003601f168201915b505050505091505090565b600033610a208185856111c8565b60019150505b92915050565b6000610a366111d5565b610a3e610c72565b6001600160a01b03163303610a6057610a58848484610900565b506001610a79565b610a6b848484611206565b610a7684848461126c565b90505b9392505050565b6000610a8a61133d565b610a95308484610900565b50600192915050565b6000610aa861136f565b905090565b610ab561133d565b610abd611379565b565b610ac761133d565b610ad182826113d9565b5050565b610adf338261140f565b50565b610aea611445565b610af3826114ea565b610ad182826114f2565b6000610b076115af565b506000805160206127c283398151915290565b610b2261133d565b600255565b6000806000805160206127828339815191525b6001600160a01b0390931660009081526020939093525050604090205490565b610b6261133d565b610abd60006115f8565b610b7461133d565b600480546001600160a01b0319166001600160a01b0392909216919091179055565b610ba1823383611206565b610ad1828261140f565b6000610a2682611669565b610bbe61133d565b610abd611692565b600060608082808083816000805160206127a28339815191528054909150158015610bf357506001810154155b610c375760405162461bcd60e51b81526020600482015260156024820152741152540dcc4c8e88155b9a5b9a5d1a585b1a5e9959605a1b6044820152606401610926565b610c3f6116db565b610c4761171a565b60408051600080825260208201909252600f60f81b9c939b5091995046985030975095509350915050565b7f9016d09d72d40fdae2fd8ceac6b6234c7706214fd39c1cd1e609a0528c199300546001600160a01b031690565b7f52c63247e1f47db19d5ce0460030c497f067ca4cebf71ba98eeadabe20bace0480546060916000805160206127828339815191529161098e906125a4565b610ba161133d565b6000610cf16111d5565b610cf9610c72565b6001600160a01b03163303610d1b57610d13338484610900565b506001610a26565b610a7933848461126c565b7ff0c57e16840df040f15088dc2f81fe391c3923bec73e23a9662efc9c229c6a008054600160401b810460ff16159067ffffffffffffffff16600081158015610d6c5750825b905060008267ffffffffffffffff166001148015610d895750303b155b905081158015610d97575080155b15610db55760405163f92ee8a960e01b815260040160405180910390fd5b845467ffffffffffffffff191660011785558315610ddf57845460ff60401b1916600160401b1785555b60005460ff16610ed257610df289611732565b6000805460ff19166001179055610e07611743565b610e536040518060400160405280600e81526020016d2232a834b71020a4902a37b5b2b760911b815250604051806040016040528060048152602001634450414960e01b81525061174b565b610e5b61175d565b610e63611743565b610e926040518060400160405280600e81526020016d2232a834b71020a4902a37b5b2b760911b81525061176d565b600480546001600160a01b03808b166001600160a01b03199283161790925560038990556032600190815560025560058054928916929091169190911790555b8315610f1857845460ff60401b19168555604051600181527fc7f505b2f371ae2175ee4913f4499e1f2633a7b5936321eed1cdaeb6115181d29060200160405180910390a15b505050505050505050565b83421115610f475760405163313c898160e11b815260048101859052602401610926565b60007f6e71edae12b1b97f4d1f60370fef10105fa2faae0126114a169c64845d6126c9888888610fb38c6001600160a01b031660009081527f5ab42ced628888259c08ac98db1eb0cf702fc1501344311d8b100cd1bfe4bb006020526040902080546001810190915590565b6040805160208101969096526001600160a01b0394851690860152929091166060840152608083015260a082015260c0810186905260e001604051602081830303815290604052805190602001209050600061100e82611798565b9050600061101e828787876117c5565b9050896001600160a01b0316816001600160a01b031614611065576040516325c0072360e11b81526001600160a01b0380831660048301528b166024820152604401610926565b6110708a8a8a6111c8565b50505050505050505050565b6001600160a01b0391821660009081527f52c63247e1f47db19d5ce0460030c497f067ca4cebf71ba98eeadabe20bace016020908152604080832093909416825291909152205490565b6110ce61133d565b600580546001600160a01b0319166001600160a01b0392909216919091179055565b6110f861133d565b6001600160a01b03811661112257604051631e4fbdf760e01b815260006004820152602401610926565b610adf816115f8565b600061113561133d565b60405163a9059cbb60e01b81526001600160a01b0384811660048301526024820184905285169063a9059cbb906044016020604051808303816000875af1158015611184573d6000803e3d6000fd5b505050506040513d601f19601f82011682018060405250810190610a7691906125de565b6111b061133d565b600155565b6111bd6111d5565b6109648383836117f3565b6109648383836001611806565b6000805160206127e28339815191525460ff1615610abd5760405163d93c066560e01b815260040160405180910390fd5b6000611212848461107c565b90506000198114611266578181101561125757604051637dc7a0d960e11b81526001600160a01b03841660048201526024810182905260448101839052606401610926565b61126684848484036000611806565b50505050565b60006001600160a01b0384163b15801561128e57506001600160a01b0383163b155b1561129e57610a58848484610900565b81600254106112dd57600254604051630333f81760e61b81526001600160a01b0386166004820152602481018490526044810191909152606401610926565b60006103e8600154846112f09190612171565b6112fa9190612188565b905060025481101561130b57506002545b8015611323576113238561131d610c72565b83610900565b61133285856102d78487612600565b506001949350505050565b33611346610c72565b6001600160a01b031614610abd5760405163118cdaa760e01b8152336004820152602401610926565b6000610aa86118ee565b611381611962565b6000805160206127e2833981519152805460ff191681557f5db9ee0a495bf2e6ff9c91a7834c1ba4fdd244a5e8aa4e537bd38aeae4b073aa335b6040516001600160a01b03909116815260200160405180910390a150565b6001600160a01b0382166114035760405163ec442f0560e01b815260006004820152602401610926565b610ad1600083836111b5565b6001600160a01b03821661143957604051634b637e8f60e11b815260006004820152602401610926565b610ad1826000836111b5565b306001600160a01b037f00000000000000000000000000000000000000000000000000000000000000001614806114cc57507f00000000000000000000000000000000000000000000000000000000000000006001600160a01b03166114c06000805160206127c2833981519152546001600160a01b031690565b6001600160a01b031614155b15610abd5760405163703e46dd60e11b815260040160405180910390fd5b610adf61133d565b816001600160a01b03166352d1902d6040518163ffffffff1660e01b8152600401602060405180830381865afa92505050801561154c575060408051601f3d908101601f1916820190925261154991810190612613565b60015b61157457604051634c9c8ce360e01b81526001600160a01b0383166004820152602401610926565b6000805160206127c283398151915281146115a557604051632a87526960e21b815260048101829052602401610926565b6109648383611992565b306001600160a01b037f00000000000000000000000000000000000000000000000000000000000000001614610abd5760405163703e46dd60e11b815260040160405180910390fd5b7f9016d09d72d40fdae2fd8ceac6b6234c7706214fd39c1cd1e609a0528c19930080546001600160a01b031981166001600160a01b03848116918217845560405192169182907f8be0079c531659141344cd1fd0a4f28419497f9722a3daafe3b4186f6b6457e090600090a3505050565b6000807f5ab42ced628888259c08ac98db1eb0cf702fc1501344311d8b100cd1bfe4bb00610b3a565b61169a6111d5565b6000805160206127e2833981519152805460ff191660011781557f62e78cea01bee320cd4e420270b5ea74000d11b0c9f74754ebdbfc544b05a258336113bb565b7fa16a46d94261c7517cc8ff89f61c0ce93598e3c849801011dee649a6a557d10280546060916000805160206127a28339815191529161098e906125a4565b606060006000805160206127a283398151915261097d565b61173a6119e8565b610adf81611a31565b610abd6119e8565b6117536119e8565b610ad18282611a39565b6117656119e8565b610abd611a8a565b6117756119e8565b610adf81604051806040016040528060018152602001603160f81b815250611aab565b6000610a266117a561136f565b8360405161190160f01b8152600281019290925260228201526042902090565b6000806000806117d788888888611b0c565b9250925092506117e78282611bdb565b50909695505050505050565b6117fb6111d5565b610964838383611c94565b6000805160206127828339815191526001600160a01b03851661183f5760405163e602df0560e01b815260006004820152602401610926565b6001600160a01b03841661186957604051634a1406b160e11b815260006004820152602401610926565b6001600160a01b038086166000908152600183016020908152604080832093881683529290522083905581156118e757836001600160a01b0316856001600160a01b03167f8c5be1e5ebec7d5bd14f71427d1e84f3dd0314c0f7b2291e5b200ac8c7c3b925856040516118de91815260200190565b60405180910390a35b5050505050565b60007f8b73c3c69bb8fe3d512ecc4cf759cc79239f7b179b0ffacaa9a75d522b39400f611919611dd2565b611921611e3c565b60408051602081019490945283019190915260608201524660808201523060a082015260c00160405160208183030381529060405280519060200120905090565b6000805160206127e28339815191525460ff16610abd57604051638dfc202b60e01b815260040160405180910390fd5b61199b82611e80565b6040516001600160a01b038316907fbc7cd75a20ee27fd9adebab32041f755214dbc6bffa90cc0225b39da2e5c2d3b90600090a28051156119e0576109648282611ee5565b610ad1611f5b565b7ff0c57e16840df040f15088dc2f81fe391c3923bec73e23a9662efc9c229c6a0054600160401b900460ff16610abd57604051631afcd79f60e31b815260040160405180910390fd5b6110f86119e8565b611a416119e8565b6000805160206127828339815191527f52c63247e1f47db19d5ce0460030c497f067ca4cebf71ba98eeadabe20bace03611a7b848261267c565b5060048101611266838261267c565b611a926119e8565b6000805160206127e2833981519152805460ff19169055565b611ab36119e8565b6000805160206127a28339815191527fa16a46d94261c7517cc8ff89f61c0ce93598e3c849801011dee649a6a557d102611aed848261267c565b5060038101611afc838261267c565b5060008082556001909101555050565b600080807f7fffffffffffffffffffffffffffffff5d576e7357a4501ddfe92f46681b20a0841115611b475750600091506003905082611bd1565b604080516000808252602082018084528a905260ff891692820192909252606081018790526080810186905260019060a0016020604051602081039080840390855afa158015611b9b573d6000803e3d6000fd5b5050604051601f1901519150506001600160a01b038116611bc757506000925060019150829050611bd1565b9250600091508190505b9450945094915050565b6000826003811115611bef57611bef61273c565b03611bf8575050565b6001826003811115611c0c57611c0c61273c565b03611c2a5760405163f645eedf60e01b815260040160405180910390fd5b6002826003811115611c3e57611c3e61273c565b03611c5f5760405163fce698f760e01b815260048101829052602401610926565b6003826003811115611c7357611c7361273c565b03610ad1576040516335e2f38360e21b815260048101829052602401610926565b6000805160206127828339815191526001600160a01b038416611cd05781816002016000828254611cc59190612752565b90915550611d429050565b6001600160a01b03841660009081526020829052604090205482811015611d235760405163391434e360e21b81526001600160a01b03861660048201526024810182905260448101849052606401610926565b6001600160a01b03851660009081526020839052604090209083900390555b6001600160a01b038316611d60576002810180548390039055611d7f565b6001600160a01b03831660009081526020829052604090208054830190555b826001600160a01b0316846001600160a01b03167fddf252ad1be2c89b69c2b068fc378daa952ba7f163c4a11628f55a4df523b3ef84604051611dc491815260200190565b60405180910390a350505050565b60006000805160206127a283398151915281611dec6116db565b805190915015611e0457805160209091012092915050565b81548015611e13579392505050565b7fc5d2460186f7233c927e7db2dcc703c0e500b653ca82273b7bfad8045d85a470935050505090565b60006000805160206127a283398151915281611e5661171a565b805190915015611e6e57805160209091012092915050565b60018201548015611e13579392505050565b806001600160a01b03163b600003611eb657604051634c9c8ce360e01b81526001600160a01b0382166004820152602401610926565b6000805160206127c283398151915280546001600160a01b0319166001600160a01b0392909216919091179055565b6060600080846001600160a01b031684604051611f029190612765565b600060405180830381855af49150503d8060008114611f3d576040519150601f19603f3d011682016040523d82523d6000602084013e611f42565b606091505b5091509150611f52858383611f7a565b95945050505050565b3415610abd5760405163b398979f60e01b815260040160405180910390fd5b606082611f8f57611f8a82611fd6565b610a79565b8151158015611fa657506001600160a01b0384163b155b15611fcf57604051639996b31560e01b81526001600160a01b0385166004820152602401610926565b5080610a79565b805115611fe65780518082602001fd5b604051630a12f52160e11b815260040160405180910390fd5b60ff81168114610adf57600080fd5b60006020828403121561202057600080fd5b8151610a7981611fff565b634e487b7160e01b600052601160045260246000fd5b60ff8281168282160390811115610a2657610a2661202b565b600181815b80851115612094578160ff0482111561207a5761207a61202b565b8085161561208757918102915b93841c939080029061205f565b509250929050565b6000826120ab57506001610a26565b816120b857506000610a26565b81600181146120ce57600281146120d857612106565b6001915050610a26565b60ff8411156120e9576120e961202b565b6001841b915060ff8211156121005761210061202b565b50610a26565b5060208310610133831016604e8410600b841016171561213a575081810a60ff8111156121355761213561202b565b610a26565b612144838361205a565b8060ff048211156121575761215761202b565b029392505050565b6000610a7960ff841660ff841661209c565b8082028115828204841417610a2657610a2661202b565b6000826121a557634e487b7160e01b600052601260045260246000fd5b500490565b60005b838110156121c55781810151838201526020016121ad565b50506000910152565b600081518084526121e68160208601602086016121aa565b601f01601f19169290920160200192915050565b602081526000610a7960208301846121ce565b6001600160a01b0381168114610adf57600080fd5b6000806040838503121561223557600080fd5b82356122408161220d565b946020939093013593505050565b60008060006060848603121561226357600080fd5b833561226e8161220d565b9250602084013561227e8161220d565b929592945050506040919091013590565b6000602082840312156122a157600080fd5b5035919050565b634e487b7160e01b600052604160045260246000fd5b600080604083850312156122d157600080fd5b82356122dc8161220d565b9150602083013567ffffffffffffffff808211156122f957600080fd5b818501915085601f83011261230d57600080fd5b81358181111561231f5761231f6122a8565b604051601f8201601f19908116603f01168101908382118183101715612347576123476122a8565b8160405282815288602084870101111561236057600080fd5b8260208601602083013760006020848301015280955050505050509250929050565b60006020828403121561239457600080fd5b8135610a798161220d565b60ff60f81b881681526000602060e060208401526123c060e084018a6121ce565b83810360408501526123d2818a6121ce565b606085018990526001600160a01b038816608086015260a0850187905284810360c08601528551808252602080880193509091019060005b818110156124265783518352928401929184019160010161240a565b50909c9b505050505050505050505050565b6000806000806080858703121561244e57600080fd5b84356124598161220d565b935060208501356124698161220d565b92506040850135915060608501356124808161220d565b939692955090935050565b600080600080600080600060e0888a0312156124a657600080fd5b87356124b18161220d565b965060208801356124c18161220d565b9550604088013594506060880135935060808801356124df81611fff565b9699959850939692959460a0840135945060c09093013592915050565b6000806040838503121561250f57600080fd5b823561251a8161220d565b9150602083013561252a8161220d565b809150509250929050565b805169ffffffffffffffffffff8116811461254f57600080fd5b919050565b600080600080600060a0868803121561256c57600080fd5b61257586612535565b945060208601519350604086015192506060860151915061259860808701612535565b90509295509295909350565b600181811c908216806125b857607f821691505b6020821081036125d857634e487b7160e01b600052602260045260246000fd5b50919050565b6000602082840312156125f057600080fd5b81518015158114610a7957600080fd5b81810381811115610a2657610a2661202b565b60006020828403121561262557600080fd5b5051919050565b601f821115610964576000816000526020600020601f850160051c810160208610156126555750805b601f850160051c820191505b8181101561267457828155600101612661565b505050505050565b815167ffffffffffffffff811115612696576126966122a8565b6126aa816126a484546125a4565b8461262c565b602080601f8311600181146126df57600084156126c75750858301515b600019600386901b1c1916600185901b178555612674565b600085815260208120601f198616915b8281101561270e578886015182559484019460019091019084016126ef565b508582101561272c5787850151600019600388901b60f8161c191681555b5050505050600190811b01905550565b634e487b7160e01b600052602160045260246000fd5b80820180821115610a2657610a2661202b565b600082516127778184602087016121aa565b919091019291505056fe52c63247e1f47db19d5ce0460030c497f067ca4cebf71ba98eeadabe20bace00a16a46d94261c7517cc8ff89f61c0ce93598e3c849801011dee649a6a557d100360894a13ba1a3210667c828492db98dca3e2076cc3735a920a3ca505d382bbccd5ed15c6e187e77e9aee88184c21f4f2182ab5827cb3b7e07fbedcd63f03300a264697066735822122043d712eaa4c10fb73c1077698d7509c216ac2c534014389ff2bc5104ac1a054264736f6c63430008190033","linkReferences":{}},"methodIdentifiers":{"DOMAIN_SEPARATOR()":"3644e515","UPGRADE_INTERFACE_VERSION()":"ad3cb1cc","allowance(address,address)":"dd62ed3e","approve(address,uint256)":"095ea7b3","balanceOf(address)":"70a08231","burn(address,uint256)":"9dc29fac","burn(uint256)":"42966c68","burnFrom(address,uint256)":"79cc6790","decimals()":"313ce567","eip712Domain()":"84b0196e","getEthPrice()":"67c9b017","initialize(address,address,uint256,address)":"be203094","minimalTax()":"7b0c067b","mint(address,uint256)":"40c10f19","name()":"06fdde03","nonces(address)":"7ecebe00","owner()":"8da5cb5b","pause()":"8456cb59","paused()":"5c975abb","permit(address,address,uint256,uint256,uint8,bytes32,bytes32)":"d505accf","price()":"a035b1fe","proxiableUUID()":"52d1902d","renounceOwnership()":"715018a6","setMinimalTax(uint256)":"561ff35b","setPriceFeed(address)":"724e78da","setTaxPromille(uint256)":"fd218725","setWallet(address)":"deaa59df","symbol()":"95d89b41","taxPromille()":"7dea2288","totalSupply()":"18160ddd","transfer(address,uint256)":"a9059cbb","transferFrom(address,address,uint256)":"23b872dd","transferOwnership(address)":"f2fde38b","transferTo(address,uint256)":"2ccb1b30","transferToken(address,address,uint256)":"f5537ede","unpause()":"3f4ba83a","upgradeToAndCall(address,bytes)":"4f1ef286","wallet()":"521eb273"},"id":3}