{"abi":[{"type":"constructor","inputs":[],"stateMutability":"payable"},{"type":"function","name":"UPGRADE_INTERFACE_VERSION","inputs":[],"outputs":[{"name":"","type":"string","internalType":"string"}],"stateMutability":"view"},{"type":"function","name":"claim","inputs":[{"name":"proof","type":"bytes32[]","internalType":"bytes32[]"},{"name":"addr","type":"address","internalType":"address"},{"name":"amount","type":"uint256","internalType":"uint256"}],"outputs":[],"stateMutability":"nonpayable"},{"type":"function","name":"initialize","inputs":[{"name":"owner_","type":"address","internalType":"address"},{"name":"root_","type":"bytes32","internalType":"bytes32"},{"name":"token_","type":"address","internalType":"address"}],"outputs":[],"stateMutability":"nonpayable"},{"type":"function","name":"owner","inputs":[],"outputs":[{"name":"","type":"address","internalType":"address"}],"stateMutability":"view"},{"type":"function","name":"pause","inputs":[],"outputs":[],"stateMutability":"nonpayable"},{"type":"function","name":"paused","inputs":[],"outputs":[{"name":"","type":"bool","internalType":"bool"}],"stateMutability":"view"},{"type":"function","name":"proxiableUUID","inputs":[],"outputs":[{"name":"","type":"bytes32","internalType":"bytes32"}],"stateMutability":"view"},{"type":"function","name":"renounceOwnership","inputs":[],"outputs":[],"stateMutability":"nonpayable"},{"type":"function","name":"root","inputs":[],"outputs":[{"name":"","type":"bytes32","internalType":"bytes32"}],"stateMutability":"view"},{"type":"function","name":"setRoot","inputs":[{"name":"newRoot","type":"bytes32","internalType":"bytes32"}],"outputs":[],"stateMutability":"nonpayable"},{"type":"function","name":"setToken","inputs":[{"name":"newToken","type":"address","internalType":"address"}],"outputs":[],"stateMutability":"nonpayable"},{"type":"function","name":"token","inputs":[],"outputs":[{"name":"","type":"address","internalType":"address"}],"stateMutability":"view"},{"type":"function","name":"transferOwnership","inputs":[{"name":"newOwner","type":"address","internalType":"address"}],"outputs":[],"stateMutability":"nonpayable"},{"type":"function","name":"unpause","inputs":[],"outputs":[],"stateMutability":"nonpayable"},{"type":"function","name":"unset","inputs":[{"name":"addr","type":"address","internalType":"address"}],"outputs":[],"stateMutability":"nonpayable"},{"type":"function","name":"upgradeToAndCall","inputs":[{"name":"newImplementation","type":"address","internalType":"address"},{"name":"data","type":"bytes","internalType":"bytes"}],"outputs":[],"stateMutability":"payable"},{"type":"event","name":"Initialized","inputs":[{"name":"version","type":"uint64","indexed":false,"internalType":"uint64"}],"anonymous":false},{"type":"event","name":"OwnershipTransferred","inputs":[{"name":"previousOwner","type":"address","indexed":true,"internalType":"address"},{"name":"newOwner","type":"address","indexed":true,"internalType":"address"}],"anonymous":false},{"type":"event","name":"Paused","inputs":[{"name":"account","type":"address","indexed":false,"internalType":"address"}],"anonymous":false},{"type":"event","name":"Unpaused","inputs":[{"name":"account","type":"address","indexed":false,"internalType":"address"}],"anonymous":false},{"type":"event","name":"Upgraded","inputs":[{"name":"implementation","type":"address","indexed":true,"internalType":"address"}],"anonymous":false},{"type":"error","name":"AddressEmptyCode","inputs":[{"name":"target","type":"address","internalType":"address"}]},{"type":"error","name":"AlreadyClaimed","inputs":[{"name":"claimer","type":"address","internalType":"address"}]},{"type":"error","name":"CannotTransfer","inputs":[{"name":"target","type":"address","internalType":"address"},{"name":"amount","type":"uint256","internalType":"uint256"}]},{"type":"error","name":"ERC1967InvalidImplementation","inputs":[{"name":"implementation","type":"address","internalType":"address"}]},{"type":"error","name":"ERC1967NonPayable","inputs":[]},{"type":"error","name":"EnforcedPause","inputs":[]},{"type":"error","name":"ExpectedPause","inputs":[]},{"type":"error","name":"FailedInnerCall","inputs":[]},{"type":"error","name":"InvalidInitialization","inputs":[]},{"type":"error","name":"InvalidProof","inputs":[]},{"type":"error","name":"NotInitializing","inputs":[]},{"type":"error","name":"OwnableInvalidOwner","inputs":[{"name":"owner","type":"address","internalType":"address"}]},{"type":"error","name":"OwnableUnauthorizedAccount","inputs":[{"name":"account","type":"address","internalType":"address"}]},{"type":"error","name":"UUPSUnauthorizedCallContext","inputs":[]},{"type":"error","name":"UUPSUnsupportedProxiableUUID","inputs":[{"name":"slot","type":"bytes32","internalType":"bytes32"}]}],"bytecode":{"object":"0x60a060405230608052610010610015565b6100c7565b7ff0c57e16840df040f15088dc2f81fe391c3923bec73e23a9662efc9c229c6a00805468010000000000000000900460ff16156100655760405163f92ee8a960e01b815260040160405180910390fd5b80546001600160401b03908116146100c45780546001600160401b0319166001600160401b0390811782556040519081527fc7f505b2f371ae2175ee4913f4499e1f2633a7b5936321eed1cdaeb6115181d29060200160405180910390a15b50565b60805161113d6100f06000396000818161080a015281816108330152610979015261113d6000f3fe6080604052600436106100f35760003560e01c80638da5cb5b1161008a578063dab5f34011610059578063dab5f340146102b3578063ebf0c717146102d3578063f2fde38b146102e9578063fc0c546a1461030957600080fd5b80638da5cb5b146101e4578063ad3cb1cc14610235578063ca21b17714610273578063d26b3e6e1461029357600080fd5b806352d1902d116100c657806352d1902d146101625780635c975abb1461018a578063715018a6146101ba5780638456cb59146101cf57600080fd5b8063144fa6d7146100f85780632966d1b91461011a5780633f4ba83a1461013a5780634f1ef2861461014f575b600080fd5b34801561010457600080fd5b50610118610113366004610de5565b610329565b005b34801561012657600080fd5b50610118610135366004610de5565b610353565b34801561014657600080fd5b5061011861038b565b61011861015d366004610e47565b61039d565b34801561016e57600080fd5b506101776103b8565b6040519081526020015b60405180910390f35b34801561019657600080fd5b506000805160206110e88339815191525460ff166040519015158152602001610181565b3480156101c657600080fd5b506101186103d5565b3480156101db57600080fd5b506101186103e7565b3480156101f057600080fd5b507f9016d09d72d40fdae2fd8ceac6b6234c7706214fd39c1cd1e609a0528c199300546001600160a01b03165b6040516001600160a01b039091168152602001610181565b34801561024157600080fd5b50610266604051806040016040528060058152602001640352e302e360dc1b81525081565b6040516101819190610f11565b34801561027f57600080fd5b5061011861028e366004610f44565b6103f7565b34801561029f57600080fd5b506101186102ae366004611005565b61059f565b3480156102bf57600080fd5b506101186102ce366004611041565b6106f9565b3480156102df57600080fd5b5061017760015481565b3480156102f557600080fd5b50610118610304366004610de5565b610706565b34801561031557600080fd5b5060025461021d906001600160a01b031681565b610331610744565b600280546001600160a01b0319166001600160a01b0392909216919091179055565b61035b610744565b6001600160981b03600882901c1660009081526003602052604090208054600160ff84161b1916905550565b5050565b610393610744565b61039b61079f565b565b6103a56107ff565b6103ae826108a4565b61038782826108ac565b60006103c261096e565b506000805160206110c883398151915290565b6103dd610744565b61039b60006109b7565b6103ef610744565b61039b610a28565b6001600160981b03600883901c166000908152600360205260409020546001600160a01b03831690600160ff85161b161561045557604051632058b6db60e01b81526001600160a01b03841660048201526024015b60405180910390fd5b604080516001600160a01b038516602082015290810183905260009060600160408051601f19818403018152828252805160209182012090830152016040516020818303038152906040528051906020012090506104b68560015483610a71565b6104d3576040516309bde33960e01b815260040160405180910390fd5b600882901c60009081526003602052604090208054600160ff85161b17905560025460405163a9059cbb60e01b81526001600160a01b038681166004830152602482018690529091169063a9059cbb906044016020604051808303816000875af1158015610545573d6000803e3d6000fd5b505050506040513d601f19601f82011682018060405250810190610569919061105a565b61059857604051637111172f60e01b81526001600160a01b03851660048201526024810184905260440161044c565b5050505050565b7ff0c57e16840df040f15088dc2f81fe391c3923bec73e23a9662efc9c229c6a008054600160401b810460ff16159067ffffffffffffffff166000811580156105e55750825b905060008267ffffffffffffffff1660011480156106025750303b155b905081158015610610575080155b1561062e5760405163f92ee8a960e01b815260040160405180910390fd5b845467ffffffffffffffff19166001178555831561065857845460ff60401b1916600160401b1785555b60005460ff166106a95761066b88610a89565b6000805460ff19166001179055610680610a9a565b610688610aa2565b6001879055600280546001600160a01b0319166001600160a01b0388161790555b83156106ef57845460ff60401b19168555604051600181527fc7f505b2f371ae2175ee4913f4499e1f2633a7b5936321eed1cdaeb6115181d29060200160405180910390a15b5050505050505050565b610701610744565b600155565b61070e610744565b6001600160a01b03811661073857604051631e4fbdf760e01b81526000600482015260240161044c565b610741816109b7565b50565b336107767f9016d09d72d40fdae2fd8ceac6b6234c7706214fd39c1cd1e609a0528c199300546001600160a01b031690565b6001600160a01b03161461039b5760405163118cdaa760e01b815233600482015260240161044c565b6107a7610ab2565b6000805160206110e8833981519152805460ff191681557f5db9ee0a495bf2e6ff9c91a7834c1ba4fdd244a5e8aa4e537bd38aeae4b073aa335b6040516001600160a01b03909116815260200160405180910390a150565b306001600160a01b037f000000000000000000000000000000000000000000000000000000000000000016148061088657507f00000000000000000000000000000000000000000000000000000000000000006001600160a01b031661087a6000805160206110c8833981519152546001600160a01b031690565b6001600160a01b031614155b1561039b5760405163703e46dd60e11b815260040160405180910390fd5b610741610744565b816001600160a01b03166352d1902d6040518163ffffffff1660e01b8152600401602060405180830381865afa925050508015610906575060408051601f3d908101601f191682019092526109039181019061107c565b60015b61092e57604051634c9c8ce360e01b81526001600160a01b038316600482015260240161044c565b6000805160206110c8833981519152811461095f57604051632a87526960e21b81526004810182905260240161044c565b6109698383610ae2565b505050565b306001600160a01b037f0000000000000000000000000000000000000000000000000000000000000000161461039b5760405163703e46dd60e11b815260040160405180910390fd5b7f9016d09d72d40fdae2fd8ceac6b6234c7706214fd39c1cd1e609a0528c19930080546001600160a01b031981166001600160a01b03848116918217845560405192169182907f8be0079c531659141344cd1fd0a4f28419497f9722a3daafe3b4186f6b6457e090600090a3505050565b610a30610b38565b6000805160206110e8833981519152805460ff191660011781557f62e78cea01bee320cd4e420270b5ea74000d11b0c9f74754ebdbfc544b05a258336107e1565b600082610a7e8584610b69565b1490505b9392505050565b610a91610bac565b61074181610bf5565b61039b610bac565b610aaa610bac565b61039b610bfd565b6000805160206110e88339815191525460ff1661039b57604051638dfc202b60e01b815260040160405180910390fd5b610aeb82610c1e565b6040516001600160a01b038316907fbc7cd75a20ee27fd9adebab32041f755214dbc6bffa90cc0225b39da2e5c2d3b90600090a2805115610b30576109698282610c83565b610387610cf9565b6000805160206110e88339815191525460ff161561039b5760405163d93c066560e01b815260040160405180910390fd5b600081815b8451811015610ba457610b9a82868381518110610b8d57610b8d611095565b6020026020010151610d18565b9150600101610b6e565b509392505050565b7ff0c57e16840df040f15088dc2f81fe391c3923bec73e23a9662efc9c229c6a0054600160401b900460ff1661039b57604051631afcd79f60e31b815260040160405180910390fd5b61070e610bac565b610c05610bac565b6000805160206110e8833981519152805460ff19169055565b806001600160a01b03163b600003610c5457604051634c9c8ce360e01b81526001600160a01b038216600482015260240161044c565b6000805160206110c883398151915280546001600160a01b0319166001600160a01b0392909216919091179055565b6060600080846001600160a01b031684604051610ca091906110ab565b600060405180830381855af49150503d8060008114610cdb576040519150601f19603f3d011682016040523d82523d6000602084013e610ce0565b606091505b5091509150610cf0858383610d44565b95945050505050565b341561039b5760405163b398979f60e01b815260040160405180910390fd5b6000818310610d34576000828152602084905260409020610a82565b5060009182526020526040902090565b606082610d5957610d5482610da0565b610a82565b8151158015610d7057506001600160a01b0384163b155b15610d9957604051639996b31560e01b81526001600160a01b038516600482015260240161044c565b5080610a82565b805115610db05780518082602001fd5b604051630a12f52160e11b815260040160405180910390fd5b80356001600160a01b0381168114610de057600080fd5b919050565b600060208284031215610df757600080fd5b610a8282610dc9565b634e487b7160e01b600052604160045260246000fd5b604051601f8201601f1916810167ffffffffffffffff81118282101715610e3f57610e3f610e00565b604052919050565b60008060408385031215610e5a57600080fd5b610e6383610dc9565b915060208084013567ffffffffffffffff80821115610e8157600080fd5b818601915086601f830112610e9557600080fd5b813581811115610ea757610ea7610e00565b610eb9601f8201601f19168501610e16565b91508082528784828501011115610ecf57600080fd5b80848401858401376000848284010152508093505050509250929050565b60005b83811015610f08578181015183820152602001610ef0565b50506000910152565b6020815260008251806020840152610f30816040850160208701610eed565b601f01601f19169190910160400192915050565b600080600060608486031215610f5957600080fd5b833567ffffffffffffffff80821115610f7157600080fd5b818601915086601f830112610f8557600080fd5b8135602082821115610f9957610f99610e00565b8160051b9250610faa818401610e16565b828152928401810192818101908a851115610fc457600080fd5b948201945b84861015610fe257853582529482019490820190610fc9565b9750610ff19050888201610dc9565b955050505050604084013590509250925092565b60008060006060848603121561101a57600080fd5b61102384610dc9565b92506020840135915061103860408501610dc9565b90509250925092565b60006020828403121561105357600080fd5b5035919050565b60006020828403121561106c57600080fd5b81518015158114610a8257600080fd5b60006020828403121561108e57600080fd5b5051919050565b634e487b7160e01b600052603260045260246000fd5b600082516110bd818460208701610eed565b919091019291505056fe360894a13ba1a3210667c828492db98dca3e2076cc3735a920a3ca505d382bbccd5ed15c6e187e77e9aee88184c21f4f2182ab5827cb3b7e07fbedcd63f03300a2646970667358221220931802e7ba7b22568b0329847ebf2365cde42e5f36ea60cdd32456fff6d4c52164736f6c63430008190033","linkReferences":{}},"methodIdentifiers":{"UPGRADE_INTERFACE_VERSION()":"ad3cb1cc","claim(bytes32[],address,uint256)":"ca21b177","initialize(address,bytes32,address)":"d26b3e6e","owner()":"8da5cb5b","pause()":"8456cb59","paused()":"5c975abb","proxiableUUID()":"52d1902d","renounceOwnership()":"715018a6","root()":"ebf0c717","setRoot(bytes32)":"dab5f340","setToken(address)":"144fa6d7","token()":"fc0c546a","transferOwnership(address)":"f2fde38b","unpause()":"3f4ba83a","unset(address)":"2966d1b9","upgradeToAndCall(address,bytes)":"4f1ef286"},"id":0}